:1000000069C400000C94D1210C942D228BC40000F3
:1000100089C4000087C4000085C4000083C40000B8
:1000200081C400007FC400007DC400007BC40000C8
:1000300079C4000077C4000075C4000073C40000D8
:100040000C941C286FC400000C949D0C0C94C30CE1
:1000500069C4000067C4000065C4000063C40000F8
:1000600061C400005FC40000441A5A1AD71BD71B92
:10007000D71B801A8D1ADE1AF71A1C1B421B711B24
:100080007B1BD71BD71BD71BD71BD71BD71B851B8E
:10009000084AD73B3BCE016E84BCBFFDC12F3D6CEF
:1000A00074319ABD56833DDA3D00C77F11BED9E455
:1000B000BB4C3E916BAAAABE000000803F05A84C35
:1000C000CDB2D44EB93836A9020C50B99186880801
:1000D0003CA6AAAA2ABE000000803F0664EC1B3C96
:1000E00004BC163E3BE5B93CC93C37C29E5A3D664E
:1000F0000498083EEA69AAAA3E000000803F030275
:10010000010053637265656E203000100E0F1101FF
:10011000000A006400E80320284E545343290020BD
:100120002850414C290025372E32660025362E31C5
:1001300066009125372E326600A125372E326600E3
:1001400026010B68A305002C018F683D06002C01D9
:1001500014739B05002C011D739305002C0112687C
:10016000970500320190768B05003901A07687054E
:10017000002C01BD618F05002C0157778305002CF1
:100180000101663906004E6F20696E707574206437
:1001900061746121202575FF00B8B9002534690517
:1001A00007002534690506006F7665726C6F61641F
:1001B0000066726F7A656E0053747265616D00251A
:1001C00034690500FF20CECECECE60CECECECE009E
:1001D000FF20202024CB7C40CB24008280818081A2
:1001E00080848081808180838081808180858081FE
:1001F00080818020C8C8C8C87EC8C8C8C820FF0081
:1002000020202024CBB8B9CB24202020FF00205868
:10021000650025322E3066002520342E30660025FC
:1002200020342E3166002520342E326600522533CC
:100230002E306605005025332E30660500482533E4
:100240002E306605004225352E31660500452535E0
:100250002E3166004525342E30666D0073452535F8
:100260002E3166002D026E6937060035026E693543
:1002700006003D026E6933060045025469310600EE
:100280004D0241682D0600540258692306005C02A5
:1002900041732906002090910025352E31660043D8
:1002A0002564253569FF002569001F1C1F1E1F1EC0
:1002B0001F1F1E1F1E1F25303269FF003A253032D6
:1002C000693A0020207820207920207AFF0020B38E
:1002D000FF20B3FF20C5FF20B3FF20B300B2FFB261
:1002E000FFC6FFB2FFB200B0B1B4B5B6B77B7D4276
:1002F000616420436F6E6669673A202564206D79DA
:10030000203739004D696E696D4F53442D4578741F
:100310007261204D535020322E34FF756E69207269
:10032000393435204456FF0023317A7A7A7A0A002C
:1003300015231D0001220800021B0800830416BCBF
:1003400084D215260537080007DE100034030C039D
:1003500035FF0B0418BB0800065D1400088510006B
:1003600009131D0025F50E0019400C000D0D145C3D
:1003700011B40F11165B0E1212600F14175B0F13DE
:10038000132609021429087F8F2B16BD2EBE0B578A
:100390001B60161D9C3713151DF10E000E991609D2
:1003A0001EEE160021100C0020850C0022640E8F1A
:1003B000246B0F1F2BB80B1F2C0A13002DE3120008
:1003C0002FC41200A7680D00A8650D00A9620D00DA
:1003D000AA5F0D001F580B0026FB0A00308F070094
:1003E00031940800333009002361100032F10F000E
:1003F0000AF813008B440E0B365215009A3B11007D
:100400000000000036040C0000180405F70A3E073F
:10041000096B0D00000000002E05680000001405A7
:1004200066600425210566640425F80466680425D1
:100430000605666C0425E10500000000D105423781
:100440000400C20542700400B40562360410A2051F
:10045000623504109105623D04108405623E04106B
:100460007405000000006605627504115D056234C4
:1004700004124D055A7204133F057A710414AE0438
:10048000A904A4040000FF00010004000000030010
:10049000E1FF1F00F1FF0F00FCFF0400C0E0401F60
:1004A0009CFF6400252E336600252E306600253320
:1004B0002E316676003420285253534929204B00B0
:1004C00033202843757272656E7429204B003220E8
:1004D00028563229204B00202020202020204100B7
:1004E000312028563129204B0020202050696E20D1
:1004F00053656E736F727300526F6C6C2020696E5F
:10050000204E54534300506974636820696E204E36
:1005100054534300526F6C6C2020696E2050414C44
:1005200000506974636820696E2050414C0020209F
:10053000486F72697A6F6E20616E676C65730056E2
:100540006572746963616C206F66667300486F72D0
:10055000697A6F6E74616C206F66667300436F6EAC
:1005600074726173740053637265656E7320436FB8
:10057000756E7400202053637265656E2070617221
:10058000616D730052535349207761726E696E67D3
:1005900000426174742063686172676520776172DC
:1005A0006E004F7665727370656564207761726E58
:1005B000696E67005374616C6C207761726E696E4E
:1005C0006700426174742032207761726E696E67D1
:1005D0000042617474657279207761726E696E672A
:1005E000002020204F5344207365747570002E2521
:1005F0003032640043256920001D060A06050618EE
:100600000614060F06686F726900616E676C0070F1
:100610006F73680072746C00616C7468006163725F
:100620006F0030062A063D06370625392E3566004E
:100630002531302E3666002530356C640025303685
:100640006C6400C206BA06B006A4069A068E06833B
:100650000679066E06640659064D6F746F72206443
:100660006561640046656E6365204661720046659B
:100670006E636520486967680046656E6365204C57
:100680006F7700426174742042206C6F7700486974
:1006900067682056537065656400204C6F77205260
:1006A0007373690042617474657279204C6F7700CE
:1006B0004F76657253706565640020205374616CD9
:1006C0006C004E6F20475053206669780025342E09
:1006D00030660025342E31660025342E3266002522
:1006E000352E32660025326900253369002E253407
:1006F000690025332E3066000001600501026405A3
:100700000203680503046C05050070050A067405FC
:100710000B07780513007C0552B80E4085EB51405D
:100720001966BB0012800C1CA0141E666666400091
:1007300000803F100CBA000A00001BE8031AE9040D
:1007400000000000E00473800225D70473840227B0
:10075000CE0473000025D70473000027C004730083
:100760000026D70473000027B50473000026D704C1
:1007700073000027000000070002010000030406C8
:10078000000000000000000001020408102040806A
:1007900001020408102001020408102004040404CB
:1007A000040404040202020202020303030303031B
:1007B00000000000230026002900000000002500A2
:1007C00028002B0000000000240027002A006E6192
:1007D0006E00696E660000407A10F35A00A0724EF7
:1007E00018090010A5D4E80000E87648170000E4D6
:1007F0000B54020000CA9A3B000000E1F50500001E
:1008000080969800000040420F000000A086010082
:100810000000102700000000E80300000000640052
:10082000000000000A0000000000010000000000BD
:100830002C76D888DC674F0823DFC1DFAE59E1B1E1
:10084000B796E5E3E453C63AE651997696E8E6C2F0
:100850008426EB898C9B62ED407C6FFCEFBC9C9FF7
:1008600040F2BAA56FA5F490055A2AF75C936B6C19
:10087000F9676DC11BFCE0E40D47FEF520E6B5000D
:10088000D0ED902E0300943577050080841E08007B
:1008900000204E0A000000C80C333333330F986E2B
:1008A00012831141EF8D2114893BE65516CFFEE6E8
:1008B000DB18D1844B381BF77C1D901DA4BBE424AE
:1008C000203284725E228100C9F124ECA1E53D272B
:1008D0000007F62711241FBECFEFD8E0DEBFCDBF43
:1008E00011E0A0E0B1E0E4E7F6E602C005900D9269
:1008F000A033B107D9F726E0A0E3B1E001C01D9213
:10090000AB3DB207E1F714E0CAE6D4E004C021979A
:10091000FE010E94CC32C836D107C9F70E946B2A6B
:100920000C94C62E6DCBFA01AA27283051F1203144
:1009300081F1E8946F936E7F6E5F7F4F8F4F9F4F73
:10094000AF4FB1E03ED0B4E03CD0670F781F891FB5
:100950009A1FA11D680F791F8A1F911DA11D6A0F83
:10096000711D811D911DA11D20D009F468943F9136
:100970002AE0269F11243019305D3193DEF6CF0135
:100980000895462F4770405D4193B3E00FD0C9F7FB
:10099000F6CF462F4F70405D4A3318F0495D31FD68
:1009A0004052419302D0A9F7EACFB4E0A6959795BB
:1009B000879577956795BA95C9F700976105710591
:1009C00008959B01AC010A2E0694579547953795DB
:1009D0002795BA95C9F7620F731F841F951FA01D35
:1009E0000895283008F027E03327DA01990F311DE8
:1009F00087FD916000966105710539F432602E5FC4
:100A00003D9330E32A95E1F708959F3F30F0803819
:100A10007105610509F03C5F3C5F3D93913008F042
:100A20008068911DDF93CF931F930F93FF92EF92F6
:100A3000192F987F9695E92F96959695E90FFF27A0
:100A4000E05DF74F99273327EE24FF24A701E70144
:100A500005900894079428F4360FE71EF81E491FE6
:100A6000511D660F771F881F991F0694A1F70590E7
:100A7000079428F4E70EF81E491F561FC11D770F73
:100A8000881F991F661F0694A1F70590079428F404
:100A9000F80E491F561FC71FD11D880F991F661FCB
:100AA000771F0694A1F70590079420F4490F561F6D
:100AB000C71FD81F990F661F771F881F0694A9F7B5
:100AC00084911095177041F0D695C7955795479525
:100AD000F794E7941A95C1F7E6EDF7E0689415905E
:100AE000159135916591959105907FE27395E11887
:100AF000F10A430B560BC90BD009C0F7E10CF11EEC
:100B0000431F561FC91FD01D7EF4703311F48A9500
:100B1000E6CFE894015030F0080F0AF400270217DE
:100B200008F4202F2395022F7A3328F079E37D9360
:100B30002A95E9F710C07D932A9589F60694979532
:100B40006795379517951794E118F10A430B560BE3
:100B5000C90BD00998F023957E9173957A3308F0EC
:100B600070E37C932013B8F77E9170617D9330F031
:100B7000839571E37D9370E32A95E1F71124EF905B
:100B8000FF900F911F91CF91DF91992787FD90954D
:100B9000089580E0089580E0089580E00895089524
:100BA0005E9A0895682F80E00C943F1280911303A1
:100BB0008861F8CF882311F080E401C080E0909133
:100BC0001303981729F0809313035E98EFDF5E9A62
:100BD00008955E9880912F0481FD06C080912E04B7
:100BE00083FF1AC081E019C080EA0E944A1280FF88
:100BF00006C081E0DFDF80912E04886007C081FF9E
:100C000008C080E0D7DF80912E04877F80932E0478
:100C100005C082FDE3CF02C080E0CCDF5E9A08957C
:100C2000CF93DF93E0913404E43008F0E0E0F0E0AB
:100C3000E250FF4FC49180E1D1E0D80F6C2F0E94A9
:100C40003F128D2FD032C1F7DF91CF9108955E987A
:100C5000E7DF6091720482E00E943F1260917104AC
:100C600083E00E943F125E9A08955E988CEE0E9487
:100C70004A12682F6F7E8CE60E943F1262E18CE080
:100C80000E943F1293DFE3CFCF935E98C0E1C15043
:100C900089F080EA0E944A12877061F48FEF0E9407
:100CA00056128FEF0E9456128FEF0E9456120E942A
:100CB000AC19EDCF80911303826074DF0E94AC19F0
:100CC000809113038C636EDF0E94A619CEDFCF9153
:100CD0000895569A52985A9A229A2A9AD5DF79DF1D
:100CE000C4CF209114038091150390E03EE1239F2F
:100CF000800D911D1124909331018093300108954E
:100D00008F71809315036F706093140380911303A8
:100D1000803411F0673008F4E4CF6350609314031B
:100D2000FBCF90911403690F90911503890F9EE1F9
:100D3000699FB0011124680F711D70933101609398
:100D4000300108952091300130913101213E91E030
:100D5000390758F4A9014F5F5F4F50933101409319
:100D60003001F901EE5CFE4F808308958F3F31F42E
:100D7000809114038F5F80931403B3CF803209F402
:100D800080E0E0CF862FF2DF81E090E00895CF93FE
:100D9000C42FC7DF8C2FEADFCF9108958FEF8093A8
:100DA00012035E9860E085E00E943F1260E086E0FA
:100DB0000E943F1261E084E00E943F125E9AE2E3EB
:100DC000F1E05E9880818EBD0DB407FEFDCF8EB53B
:100DD0005E9A119283E0E331F80798F308951CBC02
:100DE0008F7280658CBD8DB581608DBD8DB58EB5E2
:100DF0000895259A239A24982C98229A80E0EFCF80
:100E000086E193E0F6CFE82FF0E0EE0FFF1FED5EF6
:100E1000F94F20813181662329F040E253E088E9CF
:100E200098E004C048EE53E080ED97E024173507C2
:100E300080F0241B350B841B950B65E070E00E944D
:100E40006732C9010E946732862F653018F084E04E
:100E5000089580E00895A3E1B6E0ECEAF5E0808132
:100E60009181883E934028F48D919C9111979183B4
:100E700080833296129685E0E43BF80781F7089567
:100E800090E0880F991FDC01AD5EB94FFC01E4557D
:100E9000FA4F8D919C9120813181821B930B089593
:100EA000E091AB0535E0E39FF0011124EA5FFB4FD1
:100EB000949191502091090160917503709176038E
:100EC00087FF03C0222339F004C0882311F02917BB
:100ED00021F0280F03C0292F01C020E0FB0136E0DC
:100EE000239FE00DF11D1124339645915491452B1C
:100EF00039F3209309010895692F02CF7F936F93EF
:100F00009F938F9384E293E09F938F930E94A12AF3
:100F10000F900F900F900F900F900F900895A0E0FA
:100F2000B0E0E5E9F7E00C94F532D92F00916903C0
:100F300010916A0320916B0330916C038091B80388
:100F4000882309F473C082EBE82E87E0F82EE4E6EC
:100F5000F0E090E9C92EDD24D394C701837099276E
:100F6000892B81F4C701BF010E946732892B31F4BC
:100F7000C701B6010E946732892B21F461E08EE639
:100F800091E003C060E08DE691E0A0E0B0E00817DA
:100F900019072A073B0718F440E050E008C0081B77
:100FA000190B2A0B3B0B8FEFE81AF80AD6CFC42F88
:100FB000FA01E655FD4FE4914130510511F46111FC
:100FC000EF5F8E2F90E0A0E0B0E0081719072A0726
:100FD0003B0750F0081B190B2A0B3B0B4F5F5F4F71
:100FE0004C30510521F7CCE08D2F0F5F1F4FD0E023
:100FF00086FF0EC0B8018FEE95E080DFBE016F5F07
:101000007F4F8EEE95E07ADFB7018DEE96E00DC052
:10101000B7018EEE96E072DFBE016F5F7F4F8EEEFE
:1010200095E06CDFB8018EEE95E068DFCDB7DEB7F6
:10103000E8E00C941133609108047091090482EA8D
:1010400091E05CCF60910604709107048CE991E017
:1010500055CFE9EFF5E08591949160E070E04EDFC7
:101060008091A503882311F086E880CE08951F9310
:10107000CF93DF93C82F192F8091E005823019F0AC
:1010800020F0DFE003C0DFE101C0DAE2C095CC1F51
:10109000CC27CC1F11F016FF0DC06091E10570E068
:1010A00085EE96E02BDFCC2341F016FF06C08D2F96
:1010B0005DDE03C08D2F5ADEF0CFDF91CF911F91FF
:1010C0000895EF92FF920F931F93CF93DF938C01BC
:1010D000D62FC42F6CE370E00E9467327C0189EE4A
:1010E00096E00CDFCC2341F0B7018CEB92E006DFF9
:1010F000CF776C2F70E010C0DD2331F08091AA0310
:10110000882311F080E201C08AE330DEC8016CE37D
:1011100070E00E946732BC0186EB92E0EFDECDB753
:10112000DEB7E6E00C941333CF938091B8038823A5
:10113000D9F0C92F609165037091660380916703B0
:10114000909168032CE330E040E050E00E948E3242
:10115000DA01C901C5FF04C0462F406860E003C042
:101160006C2F607440E0ADDFCF91089540E060E007
:10117000A8CF85E2FBCD1F93CF93DF93382F192F94
:10118000209102062F55C0910C06263008F050C061
:10119000D0E080E09C2F64E670E00E946732CB01D3
:1011A0006138710540F029E820930B0180589109BE
:1011B000ECE0F1E012C02DE820930C0162317105E2
:1011C00050F42091AA03222331F020E220930B0156
:1011D00020930C0109C0EBE0F1E06AE170E00E94AD
:1011E00067322DE8261B208337FD0AC088E8BEDD64
:1011F00080910B01BBDD80910C01B8DD8EE8B6DD7E
:1012000016FF06C0BE0185EE96E078DEB2DF1AC09A
:101210006091390670913A0680913B0690913C06A8
:101220000E9414308EEE96E069DE81E09FDD0AC0F8
:1012300024E6C29FC00111246FEF70E00E947B3250
:10124000EB01A7CFDF91CF911F91089560E070E08F
:1012500089EE96E053DE8DCF80E288CD8FEF86CD8C
:10126000EF92FF920F931F93CF930BE413E0C0E034
:1012700096FD1CC089E0E82EF12CF8018191919136
:101280008F018C549440B7010E9467328FEE95E035
:1012900035DEC13011F4E2DF01C0DEDFCF5FC430E4
:1012A00061F70FC0D9DFCF5FC43059F0F801619109
:1012B00071918F018EEE96E021DEC13099F7CEDF7D
:1012C000F2CFCF911F910F91FF90EF900895ABE077
:1012D000B0E0EDE6F9E00C94EB328091130380343A
:1012E00089F48090640490906504A0906604B090A6
:1012F0006704C0906004D0906104E0906204F090B4
:10130000630410C080906C0490906D04A0906E04F3
:10131000B0906F04C0906804D0906904E0906A04B3
:10132000F0906B048091080490910904BC01990F1E
:10133000880B990B0E9447309B01AC01C701B60195
:101340000E9460316B017C018091950380FF04C095
:10135000F7FAF094F7F8F094C701B6010E94143040
:10136000AB016A35710540F09B012D543F4F293583
:10137000310580F477FDA901473451052CF54A3138
:10138000510534F54A30510540F128E02A8713EF22
:1013900030ED27C06B3571051CF0AB01435B510983
:1013A000CA0157FF03C09195819591098734910532
:1013B000D0F48A319105E0F40A9700F148E04A87B9
:1013C00015EF82EE8B871FC01A861DEC91EC14C0BE
:1013D000E7E0EA8718EFF9ED15C029E02A871DEC50
:1013E00036EC3B8710C01A861DEC41EC4B870BC0D6
:1013F00087E08A871BEF9BEE9B8705C0E9E0EA87C1
:101400001DECF6ECFB8727EA32E94BE25CEBC50109
:10141000B4010E9460314B015C0125E33AEF4EE8D4
:101420005CE3C701B6010E9460316C837D838E83CB
:101430009F839CE0292E312C19822A85022E000CD4
:10144000330B398728878981C82E880FDD08609182
:101450000604709107046C0D7D1D072E000C880B8F
:10146000990B0E944730A50194010E9460310E94AF
:10147000083220E030E044EB52E40E9460312B015E
:101480003C0120E030E0A9010E94553120E030E02D
:1014900040E05FE387FD0BC0C301B2010E94DF2E75
:1014A0000E9414307B01EDE2EE0EF11C0AC0C30174
:1014B000B2010E94DE2E0E9414307B01FDE2EF0E8D
:1014C000F11C0DE00219222733272C193D093B831B
:1014D0002A83802F90E0281639060CF46FC06C81A7
:1014E0007D818E819F810E9408322B013C013CE06E
:1014F000039F602D11246E54062E000C770B880B71
:10150000990B0E9447309B01AC01C301B2010E94BC
:1015100060310E941430F701E60FF71FCF010197E9
:101520008A35910508F048C062E170E00E947B3284
:101530003B014A85442379F031962EEE2603C00103
:10154000279F900D1124E80FF91FF7FD3196F595AF
:10155000E7955E2E01C0512C64E066198FEF800F75
:10156000E0DB3981332379F0053069F4B601D7FE29
:1015700002C06A817B814AE050E084E293E00E94ED
:10158000652A06E003C08B85850DF0DB5520A1F0B0
:10159000252D30E088859985281739076CF094E06F
:1015A0006916710449F0E52DE10F4AEF4E0F63E033
:1015B00066198FEF800FEBDB0F5F8BCFF7FE0BC051
:1015C000E981E25EE98334E0231A310844E024161D
:1015D000310449F038CFFBE5EF16F10424F02981FE
:1015E0002E512983F0CF2B96E2E10C94073366E06D
:1015F00089E086DB6CCE0F931F93CF93DF938091AE
:10160000C703882309F44DC04091C5035091C60318
:101610002091C3053091C4054217530709F441C016
:101620002091C4038AE1821B87FD0AC060E0869591
:1016300078DB67EC73E084E293E00E94DD2933C03D
:1016400096FD1DC08195282F30E080910204909175
:10165000C203891B90E0B901660F771F0E947B329D
:101660004091BB0341110DC0009729F02150310971
:101670008217930731F421E02093BB0302C080E07E
:1016800090E0EC01C953DC4F8E01065E1F4F89913B
:10169000811102C0E1DD07C069DBC017D107B9F7CE
:1016A000F9CF1092C703DF91CF911F910F91089549
:1016B000292F8091C3059091C4058F7399270297B4
:1016C00010F026FF06C06FE374E084E293E00C9410
:1016D000DD2908950E94DE2E20EC3BE649ED57E41B
:1016E0000C946031CF92DF92EF92FF92CF93C42F90
:1016F0006B017C01E894F7F8C701B6010E94143031
:10170000072E000C880B990B0E9447309B01AC01FF
:10171000C701B6010E94DE2E9B01AC01C11105C0BC
:1017200060E074E284E799E404C060E070E583EC73
:1017300097E40E9460310E941930CF91FF90EF90A2
:10174000DF90CF9008957F936F935F934F939F9314
:101750008F9384E293E09F938F930E94A12A8DB789
:101760009EB708960FB6F8949EBF0FBE8DBF089522
:1017700040E050E0BA0189ED96E0E5CF40912804C1
:101780005091290460912A0470912B0482EF96E015
:10179000DACFCF93DF93282F86FB442740F9E42F3D
:1017A000F0E0DB016D917D918D919C91EE0FFF1F1B
:1017B00025FF1AC0EA5DF94FC591D49193DF9F933D
:1017C0008F937F936F93DF93CF9384E293E09F9304
:1017D0008F930E94A12AADB7BEB718960FB6F894A2
:1017E000BEBF0FBEADBF08C0EE5DF94F259134916D
:1017F000AB01BC01C901A7DFDF91CF9108956CE176
:1018000074E0892FC6CF68E174E0892FC2CFCF93EF
:10181000C22F99DFCC2311F08C2FA8DACF91089535
:10182000CF9320912C0430912D04F9013C96E49142
:10183000F9013D9665917491F9013A96C49180E061
:1018400090E00E9445302AE037ED43E25CE30E94DD
:101850006031AB01BC012C2F89E992E0D8DFCF9138
:101860000895CF93C42F28EE33E040E050E00E946B
:101870008E32DA01C90140E06C2F23DCCF9108954C
:10188000492F40746091EF057091F0058091F1054A
:101890009091F205E6CFCF93C82F6091C704709165
:1018A000C8048091C9049091CA040E941430615008
:1018B00071096F30774280F4C7FD02C086E156DAC5
:1018C0004091C7045091C8046091C9047091CA0442
:1018D00021E08DEC96E09BDFCF9108957F936F938D
:1018E0009F938F938FE992E09F938F9384E293E08D
:1018F0009F938F930E94A12A8DB79EB708960FB62B
:10190000F8949EBF0FBE8DBF08950F931F93CF9382
:10191000DF9303E116E080E090E0F80161917191BE
:101920008F01EC012196CE01D9DFCE012897A9F7CE
:10193000DF91CF911F910F9108951F920F920FB6D3
:101940000F9211242F938F939F93EF93FF93909176
:10195000C6008091D9068F5F8F772091DA068217B3
:1019600041F0E091D906F0E0E95AF94F9083809375
:10197000D906FF91EF919F918F912F910F900FBEFC
:101980000F901F9018951F920F920FB60F9211246F
:101990008F939F93EF93FF939091D8068091D706F2
:1019A000981779F0E091D806F0E0ED5AF94F808170
:1019B0008093C6008091D8068F5F83708093D8068D
:1019C00005C08091C1008F7D8093C100FF91EF9190
:1019D0009F918F910F900FBE0F901F901895EF92CF
:1019E000FF920F931F93CF93DF938C01040F151F6A
:1019F000EC017B01E81AF90AC017D10739F0C701D9
:101A00008C0F9D1F0E9422338993F6CFCDB7DEB78E
:101A1000E6E00C941333A8E1B0E0E1E1FDE00C94C2
:101A2000FA32182F88E1189FB001112460587D4FB9
:101A300048E150E0CE010196D2DFE12FF0E0EE0F59
:101A4000FF1FEC57FC4F6081718180E090E00E94A5
:101A5000453029813A814B815C810E9460312D8122
:101A60003E814F8158850E94DF2E9F938F937F93F5
:101A70006F93CE0109969F938F9384E293E09F9397
:101A80008F930E948F2A0FB6F894DEBF0FBECDBF92
:101A90006896E3E00C941633982F262F30E0F90176
:101AA000E058FC4F87FD09C0862F41E04083F901D3
:101AB000E458FC4F90749083AECF1082089563E099
:101AC000892FEACF62E0892FE7CF61E0892FE4CF49
:101AD00060E0892FE1CFCF936AE086E011D9C0E0C2
:101AE0008C2F99DFBBDBCF5FC430D1F7CF91089546
:101AF000A0E0B0E0EEE7FDE00C94F632EB017C01F3
:101B00008B01040F151FC017D10771F0F701D19099
:101B10007F01CE010E9422338D1521F06D2DCE0163
:101B20000E942A332196EFCFCDB7DEB7E7E00C94C1
:101B30001233EF92FF921F93CF93DF93182F7B0105
:101B4000C0E0D3E0CE010E9422338F3F71F08111BB
:101B500003C0112351F01150111102C0F701099572
:101B60002196C038F3E0DF0769F7DF91CF911F912D
:101B7000FF90EF9008950F931F93CF93DF93EC01A5
:101B80008B010E946628DC01CB01800F911FA11DF3
:101B9000B11D88839983AA83BB83DF91CF911F9165
:101BA0000F9108959B01FC014081518162817381F5
:101BB000420F531F611D711D4083518362837383E4
:101BC0000895E0912C04F0912D043496659175915F
:101BD000859194910895CF92DF92EF92FF926B01DD
:101BE0007C01EFDFA70196010E946031FF90EF902A
:101BF000DF90CF900895CF92DF92EF92FF92CF9334
:101C0000DF93E9DF6B017C0120E03CE34CE156E42B
:101C10000E94A52FC0912C04D0912D04FE0118160E
:101C20003CF039962491B701A6018DEC96E024C0D2
:101C300070966591749180E090E00E9445309B0120
:101C4000AC01C701B6010E94AC2F6B017C010E9460
:101C500014306A30710534F06436710534F08DEC5F
:101C600096E005C089ED96E002C083ED96E0FE01A6
:101C70003F962491B701A601CADDDF91CF91FF9075
:101C8000EF90DF90CF90089596FB882780F980939E
:101C9000BA038091AC03882369F097FD0BC0609173
:101CA000D8057091D9058091DA059091DB050E94E5
:101CB0004730A1CF08956091D1057091D2058091F0
:101CC000D3059091D40597CF60913D0670913E0663
:101CD00080913F06909140068ECFE0912C04F091C8
:101CE0002D0465917591859194910895A0E0B0E0DF
:101CF000ECE7FEE00C94F532EC01D62EFE010591E6
:101D000014910115110509F467C0FE013296849102
:101D100081112CD8FE01339684913196E590F49090
:101D2000893691F030F4813609F43CC08836C1F030
:101D300004C08337E9F0863719F150E2C52E60E020
:101D400070E080E89FE337C0F70160817181072E62
:101D5000000C880B990B0E94473040E2C42E32C021
:101D6000E0912C04F0912D043996C4902ADF23C011
:101D7000E0912C04F0912D043896C490AEDF1BC086
:101D800020DF2091B003211114C0E0912C04F091C8
:101D90002D047296C49020E030E040E752E40E94A7
:101DA000603109C031E4C32E6AE077ED83E29CE341
:101DB00002C028E1C22EF701208131814281538186
:101DC0000E9460312C2DAB01BC01C80120DD46DA38
:101DD0002796DA94D11092CFCDB7DEB7E8E00C9415
:101DE000113367E084E692E081CFCF93DF93D82F61
:101DF000C92F82D888E00E94B6066091EF057091E5
:101E0000F0058091F1059091F20540E02ADD6AE04D
:101E100080E491E06BDFC6FF05C06C2F8AE08D0F78
:101E20000E94800683E00E94B60668E174E080E0CC
:101E3000B0DC14DA84E00E94B6066CE174E080E065
:101E4000A8DCDF91CF910895CF92DF92EF92FF92BD
:101E5000FC01C080D180E280F3803FDFA7019601C2
:101E60000E946031FF90EF90DF90CF9008951F9314
:101E7000CF93DF93EC01CB01142FE6DF112341F068
:101E800024EE38E34EE85EE30E94603128E106C0AC
:101E9000E0912C04F0912D0438962491AB01BC0103
:101EA000CE01B5DCDF91CF911F910895462FBC0183
:101EB00082EF96E0DCCF692F60748DEC95E0F6CF71
:101EC000692F607485EC95E0F1CF2FE632E143E8AD
:101ED0005AE30C9460310F931F93CF93DF930091DB
:101EE000CB041091CC048AEF809FB001819F700DCC
:101EF0001124072E000C880B990B0E9447306BDED3
:101F0000C0912C04D0912D04083211054CF0DDDF76
:101F1000AB01BC01FE013F96249189ED96E007C01C
:101F2000FE0139962491AB01BC018DEC96E06FDC8B
:101F3000DF91CF911F910F910895CF93DF9361119E
:101F400003C0CFEDD6E002C0C3EDD6E0BC0180E017
:101F500090E00E944530B9DFAB01BC012DE0CE011D
:101F600056DCDF91CF9108950F931F93292F95FF92
:101F700009C06091D1057091D2058091D3059091EF
:101F8000D40519C06091200470912104809122042D
:101F90009091230426FF0CC00091140410911504A5
:101FA0002091160430911704601B710B820B930B68
:101FB0000E9447308ADF1FDE1F910F910895CF9353
:101FC000DF93EC010E94662828813981CB01821BB6
:101FD000930BDF91CF910895BC0184E293E00C94C0
:101FE000752A1F93CF93DF93182FC92F87FD0FC03A
:101FF00096FF04C0D0E08EEC92E003C0D1E08DEDFE
:1020000092E0EADF812F9C2F0E947C0701C0D0E084
:102010008091410690914206A0914306B0914406FA
:10202000BC01CD01905820E030E040E151E40E9435
:1020300060310E9414309B014091950342FD06C01F
:102040004CE3469F9001479F300D1124C5FF06C009
:10205000C9016AE070E00E947B329B01C4FF06C0A8
:1020600037FF02C02F5F3F4F3595279516FF08C0F9
:1020700037FF02C02D5F3F4F359527953595279542
:10208000A901435D5F4F57FF02C04F5F5F4FCA0119
:102090009595879569E070E00E947B3265302CF45D
:1020A00067FD06C04FEC481B05C04EE764E002C068
:1020B00040E660E08D2F0E94C706DF91CF911F910F
:1020C0000895CF93DF9387FD03C083EC92E084DF14
:1020D000C9E5D3E0499159916991799182EF96E0F0
:1020E00032DB83E0C536D807A9F7B8D8C3E5D3E01B
:1020F0006991799189EE96E00E947E0783E0C93567
:10210000D807B1F7DF91CF910895FF920F931F93F6
:10211000CF93DF93F92E8095D82FDD1FDD27DD1FAC
:10212000092F0072DD2339F096FD05C00023B1F1BF
:1021300080E092E051DF83EC0E94B6062091D50545
:102140003091D60548E1429FC001439F900D112474
:102150000C9668E671E00E947B3264507109C62FCC
:1021600077FF02C0C8E1C60F011102C019E001C02B
:102170001AE0EC2FF0E0E552FE4F84910E94B60683
:10218000CF5FC83108F0C0E0115099F787E80E948E
:10219000B606DD2371F0F6FC04C00BC083EF91E0BE
:1021A000C9CF011103C084EC91E002C080ED91E041
:1021B00013DFCDB7DEB7E5E00C9414331F93CF9354
:1021C000DF9340911C0450911D0460911E04709196
:1021D0001F04452B462B472B69F44091180450915E
:1021E000190460911A0470911B04452B462B472B50
:1021F00009F43DC094FD02C01FEF01C010E2EC01E4
:102200008091AA038823D9F08091B5038A3048F0E1
:1022100088EB91E0E1DE812F0E94B60681EB91E030
:102220000CC08091B6038A3050F088EB91E0D4DE88
:10223000812F0E94B60688EA91E0CEDE18C0C095D4
:10224000CC1FCC27CC1F19F083E00E94B60668E1B2
:1022500074E08D2F9EDA812F0E94B606CC2319F0F0
:1022600084E00E94B6066CE174E08D2F92DADF9173
:10227000CF911F910895EF92FF920F931F93CF93E9
:10228000DF938091A403882309F4E5C01092A4038E
:102290008DEC95E0D9DD0E9414309B01609107061A
:1022A000709108068091090690910A064091AF034B
:1022B000442351F0E1E050E04091E005423008F065
:1022C000E0E0CE2FD52F02C0C0E0D0E0F090320485
:1022D000F1100AC04091360450E02417350724F469
:1022E0004091A90340FDC26040913504442329F088
:1022F00050E0421753070CF4C46000910C06109193
:102300000206E0903704EE2081F02AE037ED43E248
:102310005CE30E9460310E9414306115710529F060
:102320008E2D90E068177907E4F020913D04222378
:10233000C9F034E6039FC0011124312F17FF02C0FA
:1023400031E0310F3595830F911D37FD9A95612F3F
:10235000110F770B0E947B32822F90E0681779076C
:102360000CF4C86080913C0480FD0BC080913E0459
:1023700090E02091FC033091FD032817390708F401
:10238000C061609141067091420680914306909130
:10239000440621E0F21218C0109136041123A1F076
:1023A00020E030E040E752E40E9460319F770E94D5
:1023B0001430CB016AE070E00E947B32812F90E004
:1023C000861797070CF4C0626091030670910406AB
:1023D000809105069091060610917004112391F0EA
:1023E0002AE037ED43E25CE30E9460310E94143042
:1023F0006115710539F0812F90E06817790714F4A1
:10240000C06405C0209719F41092170324C090915E
:10241000170381E09111890F8093170380911703AF
:102420004FEF480F21E030E002C0220F331F4A95E2
:10243000E2F78C3018F081E021E030E0A9014C2374
:102440005D23452B21F48F5F220F331FF2CF809342
:1024500017038917C9F2E0911703EE2359F0F0E052
:10246000EE0FFF1FEF5BF94F85919491B5DD81E28F
:102470000E94B606CDB7DEB7E6E00C9413338EBDEE
:102480000DB407FEFDCF8EB56EBD0DB407FEFDCFBA
:102490008EB508958EBD0DB407FEFDCF8EB58FEFBE
:1024A0008EBD0DB407FEFDCF8EB508958EBD0DB463
:1024B00007FEFDCF8EB508958AEA90E00C94BB2804
:1024C0000E947A2E811101C0F7CF0895CF93DF9338
:1024D000EC019A01AB01688179818A819B810E941C
:1024E000DF2E688379838A839B83DF91CF91089560
:1024F000CF92DF92EF92FF92CF93DF93EC016A01CC
:102500007B019A01AB01688179818A819B810E945C
:10251000A52F87FF04C0C882D982EA82FB82DF919F
:10252000CF91FF90EF90DF90CF900895CF93DF93FE
:10253000EC01CB01BA010E94473025E93FEB46EDA3
:1025400053E30E946031688379838A839B83DF91A0
:10255000CF91089580919F03882329F090919D0346
:1025600081E0911180E0089595FB222720F994FDE8
:1025700002C090E001C092E0922B86FD02C080E094
:1025800001C084E0892B08951F93CF93DF93182F08
:10259000EBDF8C5FC82FD0E017FD07C0BE016F5F77
:1025A0007F4F84EF95E00E947E07CC0FDD1FCD5E4C
:1025B000D94F688179818EEE96E00E947E07DF9187
:1025C000CF911F9108951F93CF93DF93182FC92F99
:1025D000CBDFD4E0D80F17FD08C06D2F70E06F5F20
:1025E0007F4F87EA92E00E947E076C2F60748D2FE8
:1025F0000E940307D82FC0E0CD1302C081E801C0BC
:1026000080E80E94B606CF5FC530B1F7DF91CF9169
:102610001F9108951F93CF93DF93182FC92FA4DF25
:10262000D4E0D80F17FD08C06D2F70E06F5F7F4FAB
:1026300084EF95E00E947E076C2F60748D2F0E94BE
:10264000030766EB76E075DADF91CF911F9108956D
:10265000892F807495FF04C0811105C08EE1089513
:10266000811103C0089584E608958AE00895CF9209
:10267000DF92EF92FF92CF93DF93D82FC92FE8DF3D
:1026800080930801C7FD43C0C4FF1EC081E0809352
:10269000B003C0904106D0904206E0904306F0900F
:1026A0004406C701B6019F770E9414306A30710555
:1026B00044F5D6FD03C086E292E002C08FE192E0CD
:1026C00028E1B701A6011BC01092B003E0912C04D1
:1026D000F0912D047296C49120E030E040E752E47E
:1026E00060914106709142068091430690914406A4
:1026F0000E946031AB01BC012C2F88E192E087D8A9
:1027000006C064367105D4F288E192E0D9CFDF913A
:10271000CF91FF90EF90DF90CF900895A2E0B0E0CE
:10272000E4E9F3E10C94FB329091BC05682F70E072
:10273000660F771F80E8989F600D711D112442E09D
:1027400050E0CE0101964BD989819A812296E2E030
:102750000C9417332091C3053091C405260F311D09
:102760003093C6032093C5038093C4038091020471
:102770008093C203089597FF03C088599E4F089520
:10278000893621E0920714F088569140089581E03F
:1027900080939E0388E0ECEAF5E0DF011D928A95C4
:1027A000E9F780E0BBDF909396038093950308954B
:1027B00024E0880F991F2A95E1F78C549F4F68E613
:1027C00071E00E947B3281E0860F0895CF93F0DFA5
:1027D0008F7009F480E1880FCEEFC80F80E98C0F6D
:1027E0000E94B60681E98C0F0E94B606CF9108952B
:1027F000CF938091AC03882371F0C92F8091D705C6
:1028000090E0E4DFC6FF07C06091D70570E089EE75
:1028100096E00E947E07CF9108951F93CF93DF9398
:10282000C0912306D0912406C83E83E0D8073CF42B
:10283000C9318CEFD8072CF4C9E1DCEF02C0C7EE38
:10284000D3E0E0912C04F0912D043996149160E0CE
:1028500070E085EE96E00E947E070E942C0960E001
:1028600070E0CB01B8D9AB01BC01212F8DEC96E013
:102870000E94070C0E942E09809131069091320629
:102880007ADF2091D5053091D605821B930B9EDF10
:102890008EE092E0A1DBBE01DD0F880B990B0E9458
:1028A000473099D9AB01BC01212F8DEC96E00E94F5
:1028B000070CDF91CF911F9108958091DE059091D3
:1028C000DF05C29664E670E00E9467322091D5056C
:1028D0003091D605CB01821B930B4DDF9C01245B0D
:1028E00031093093DD052093DC0570DF6091DC0554
:1028F0007091DD058FEB91E00C947E074F925F9213
:102900006F927F92BF92CF92DF92EF92FF920F93DE
:102910001F93CF93DF938C01EB01B42EFC01C08099
:10292000D180E280F380C701B6019F7725E33AEFBB
:102930004EE85CE30E9460310E94A92F2B013C010C
:10294000288139814A815B81C701B6010E946A0BE7
:102950006B017C01609318037093190380931A0331
:1029600090931B032C813D814E815F81F80164812E
:102970007581868197810E946A0BA30192010E9452
:10298000603160931C0370931D0380931E0390932A
:102990001F039B01AC010E9460312B013C01A70188
:1029A0009601C701B6010E9460319B01AC01C301D1
:1029B000B2010E94DF2E0E94C7316B017C01BB2057
:1029C00099F1F80180859185A285B385488559855F
:1029D0006A857B858C019D01041B150B260B370B2B
:1029E000C901B80137FF07C0909580957095619532
:1029F0007F4F8F4F9F4F0E94473067DA9B01AC019A
:102A00000E9460312B013C01A7019601C701B6016C
:102A10000E9460319B01AC01C301B2010E94DF2E14
:102A20000E94C7316B017C01C701B601DF91CF91D4
:102A30001F910F91FF90EF90DF90CF90BF907F900C
:102A40006F905F904F900895CF93DF9380911C0318
:102A500090911D03A0911E03B0911F039C01AD0135
:102A60005058609118037091190380911A03909146
:102A70001B030E94522F2091D5053091D605C6EA3E
:102A8000DFEFC21BD30B20EE3EE245E652E40E948C
:102A900060310E941430CE01860F971F6CDEDF91EB
:102AA000CF9108958F929F92AF92BF92FF920F9312
:102AB0001F93CF93DF93F82EC0E0D0E08E01075D27
:102AC0001C4FF8018089882389F0F7FC03C080E25D
:102AD0000E94A20641E068E174E0C8010FDF4B01EB
:102AE0005C01B2DF73DEC501B40185D86196C232E4
:102AF000D10521F7DF91CF911F910F91FF90BF90EA
:102B0000AF909F908F9008958F929F92AF92BF92B7
:102B1000CF92DF92EF92FF920F931F93CF938C018E
:102B20004A015B01C22FFC01C080D180E280F380AA
:102B300020E030E0A901C701B6010E94A52F88233B
:102B400011F0C23030F4F80180829182A282B38207
:102B50001DC0A7019601C501B4010E94DE2E4B01E4
:102B60005C016C2F70E080E090E00E9447309B0198
:102B7000AC01C501B4010E94AC2FA70196010E94CF
:102B8000DF2EF8016083718382839383CF911F913D
:102B90000F91FF90EF90DF90CF90BF90AF909F90FC
:102BA0008F900895CF93DF93C92F52DDD82F609176
:102BB0000F067091100680E090E00E944530AB0156
:102BC000BC012D2F83E096E09FDF81E0C7FD12C09E
:102BD0008093B903C07160910306709104068091DF
:102BE0000506909106060E941930DC01CB016C2F7E
:102BF000A4D907C090917004911101C080E0809326
:102C0000B903DF91CF910895CF93DF93C92F20DDD2
:102C1000D82F609111067091120680E090E00E941A
:102C20004530AB01BC012D2F87E096E06DDFC7FD7D
:102C30000FC0C07160910706709108068091090667
:102C400090910A060E941930DC01CB016C2F75D9D6
:102C5000DF91CF910895CF93DF93C92FF9DCD82F5F
:102C600060910D0670910E06072E000C880B990BD3
:102C70000E944730AB01BC012D2F8DE693E044DF6D
:102C8000C7FD1BC0C4FD03C0CFEDD6E002C0C3ED3D
:102C9000D6E02AE037ED43E25CE360916D0370918A
:102CA0006E0380916F03909170030E946031AB01BD
:102CB000BC012EE0CE010E94070CDF91CF91089558
:102CC0000F931F93CF93DF93092F80E090E053DDA4
:102CD000EC014091C9055091CA056091CB057091F6
:102CE000CC0524E685E496E00FDF06FB112710F9FA
:102CF000612F89EC95E0DAD80E942E098091D505E4
:102D00009091D605C81BD90B05FD03C080E090E06B
:102D100002C084EB90E08C0F9D1F58DD412F65E4CD
:102D200076E082E192E0A3D8DF91CF911F910F91DD
:102D30000895CF93DF93C92F8BDCD82F6091FC03CC
:102D40007091FD0380E090E00E944530AB01BC0132
:102D50002D2F8DEB94E0D8DE6091BD047091BE0400
:102D60008091BF049091C0040E94143089EE96E0D7
:102D70000E947E0780913C0480FD03C0C4FD0E9438
:102D8000B908DF91CF910895CF92DF92EF92FF9231
:102D900060910D0670910E06072E000C880B990BA2
:102DA0000E9447306B017C0185EC95E04DD89B017A
:102DB000AC01C701B6010E94AC2F20E030E040E238
:102DC00051E40E946031AB01BC0124E687EC94E041
:102DD0009BDEFF90EF90DF90CF900895A0E0B0E0F1
:102DE000E4EFF6E10C94F5322091A503222309F4D7
:102DF000E9C0292FC82F6091C5057091C605809143
:102E0000C7059091C80526FF05C0BEDF8C2F0E9424
:102E10004B0CD8C020913204211186C020E030E054
:102E2000A9010E94A52F882309F4CCC0ADDF8091B1
:102E3000A8038823D1F01092E6051092E7051092BE
:102E4000E8051092E90580913D0690913E06A0911B
:102E50003F06B09140068093C1049093C204A093B2
:102E6000C304B093C4041092A8032DEC3CEC4CE4D2
:102E70005DEB6091E2057091E3058091E40590912E
:102E8000E5050E94A52F87FF3EC02091C104309127
:102E9000C2044091C3045091C40460913D067091F6
:102EA0003E0680913F06909140060E94DE2E20E073
:102EB00030E0A9010E9460310E94EB0D6B017C01A2
:102EC0000E941430CB016031774224F418161906A1
:102ED00044F078C0C12C8CE3D82E8CE1E82E86E437
:102EE000F82EC7FD03C08EEE0E94B606E0912C04BA
:102EF000F0912D0439962491B701A6018DEC96E04E
:102F00000E94070C5FC0809106049091070497FF10
:102F100059C08091AA03882319F086E992E002C083
:102F200085E992E059D84EC0D0910C060D2F10E0E3
:102F300080910106082E000C990B08171907B9F1AA
:102F40006091EF057091F0058091F1059091F20587
:102F50000E9445306B017C016D2F70E080E090E0B5
:102F60000E9445309B01AC01C701B6010E9460314F
:102F70006B017C0140910206042E000C550B401B96
:102F8000510BBA01550F880B990B0E9447309B01DA
:102F9000AC01C701B6010E94AC2F0E94650F0E94D0
:102FA0001930709300066093FF05D0930106C7FDAA
:102FB00003C087E10E94B6068091FF05909100064C
:102FC0000E94B608CDB7DEB7E8E00C9411332AE0D2
:102FD0009BCD4F925F926F927F928F929F92AF9212
:102FE000BF92CF92DF92EF92FF921F93CF93DF9326
:102FF00084E294E00E94DF0FEC0160E070E084E284
:1030000094E00E94BB0DBE0180E090E00E9445303C
:103010000E94650F2B013C0160910D0670910E0618
:10302000072E000C880B990B0E9447304B015C0166
:10303000609111067091120680E090E00E94453088
:10304000A50194010E9460312CEA35EC47E257E378
:103050000E946031AB01BC0188E294E0B8DF1091BE
:103060000801C090E205D090E305E090E405F090FF
:10307000E505C701B6010E94EB0DAB01BC01212F94
:1030800081E496E041DD20910C0680910206082E35
:10309000000C990B422F50E08417950714F42093ED
:1030A000020621E63BE046E35BE3C501B4010E9472
:1030B0006031A30192010E946031AB01BC0189E340
:1030C00096E004DA8091FE039091FF0320913C0486
:1030D00020FD44C04091760450917704E09178043B
:1030E000F0917904E417F5073CF4342F252FAF0154
:1030F000E32FF22F11E001C010E0742F652F481765
:10310000590714F4782F692F272F362FE217F3076A
:103110000CF49F01241B350BA4E6B0E00E94D232D0
:10312000E41BF50B9F0140E050E00E94B0322536D1
:1031300031052CF437FF05C020E030E002C024E662
:1031400030E0112331F084E690E0AC01421B530BD8
:103150009A013093FD032093FC0304C09093FD0378
:103160008093FC0380913204811104C08091A903F3
:1031700080FD05C08091A503882309F470C0BE01BD
:103180008FEE95E00E94D20D8091AC03882389F0E8
:103190002091C5053091C6054091C7055091C805DD
:1031A000C301B2010E946031AB01BC018DE396E026
:1031B0008DD96091D8057091D9058091DA059091EB
:1031C000DB050E944730AB01BC0183EA95E090D952
:1031D0004091CD055091CE056091CF057091D005FD
:1031E0008FE995E085D94091C5055091C60560915C
:1031F000C7057091C8058BE995E07AD94091D10552
:103200005091D2056091D3057091D40587E995E07E
:103210006FD94091C9055091CA056091CB05709155
:10322000CC0583E995E064D94091280450912904A4
:1032300060912A0470912B0483E895E059D9B50177
:10324000A4018FE895E054D9B701A6018BE895E079
:103250004FD9B701A601705887E895E049D9DF91A9
:10326000CF911F91FF90EF90DF90CF90BF90AF90E4
:103270009F908F907F906F905F904F9008950E94E5
:1032800066286093BD057093BE058093BF0590933B
:10329000C0058091C3059091C4059093C2058093A9
:1032A000C105EEE9F3E081E0808382830895CF9346
:1032B00090918E03992309F447C0E0917304F0E0E4
:1032C000EE0FFF1FE55EF94F20813181CFB78823D4
:1032D00009F0F89480917A048130D9F018F08230A6
:1032E00011F131C0E0918C03F0918D0390818091B8
:1032F0008E03892B8083C9010E94BB28E0918C0337
:10330000F0918D03908180918E0380958923808335
:103310001AC090918E03E0918C03F0918D032D3DA6
:1033200035406CF009C090918E03E0918C03F091D0
:103330008D032C3D35401CF48081982B03C0808187
:10334000909598239083CFBFCF91089566E970E060
:1033500080E090E00C9497286FE070E080E090E0CF
:103360000C94972865E082E00E94800684E093E058
:103370000E94EC0F0E9466284AE050E084E293E04D
:103380000E942C2A8091B703882359F061E081E0E4
:103390000E9480066091480470E08FEE92E00E94E7
:1033A0007E070E94CE06D2CF4F925F926F927F929D
:1033B0008F929F92AF92BF92DF92EF92FF920F9304
:1033C0001F93CF93DF9300E615E020E2F22E34E660
:1033D000E32ECAE0D0E040E1D42E0E947A2E88236A
:1033E00009F4FCC10E94892E909150059230A1F001
:1033F00028F4992351F0913051F005C09430D1F068
:1034000080F0953011F19F5FE4C191E0D5C18D341A
:1034100009F0DEC192E0DDC18E3309F0D9C193E03D
:10342000D8C1813808F0D4C180934F0580934E05F0
:1034300094E0CFC18093510590914E0589278093E8
:103440004E0510924D0595E0C4C120914E052827E8
:1034500020934E05E0914D0530914F05E313AFC128
:103460002111AAC1109252050ADFE09151058E2F59
:1034700090E0FC01E456F109E431F10508F097C150
:10348000EC5CFF4F0C94CC32E091520581E08E0F42
:1034900080935205F0E0E353FB4F80818093050455
:1034A0008091540590915505A0915605B09157050E
:1034B0008E7F75C1E0915205F0E0ED52FB4F4081E7
:1034C00051816281738140935C0550935D056093E7
:1034D0005E0570935F058091600590916105A091F4
:1034E0006205B091630584239523A623B72321E0C9
:1034F000892B8A2B8B2B09F420E02093A50357C13D
:10350000E0915205F0E0E353FB4FA3E1B6E08D2DCF
:1035100001900D928A95E1F74AC18091520590E0A1
:10352000FC01E353FB4F20812093E0052181209390
:10353000E105FC01E153FB4F4081518162817381C0
:1035400088E194E00E949612E0915205F0E0ED527D
:10355000FB4F40815181628173818CE194E00E9434
:103560009612A0905205B12CF501E952FB4F8081D3
:103570009181A0E0B0E08093200490932104A09377
:103580002204B0932304F501E752FB4F608171815F
:1035900080E090E00E9445306093C5057093C605B9
:1035A0008093C7059093C805F501E552FB4F8081D4
:1035B00091819093DF058093DE05F9C080915205DB
:1035C00090E0FC01E353FB4F4081518160E070E0EB
:1035D0004093D8055093D9056093DA057093DB05C5
:1035E000FC01E153FB4F80818093D705E0C020911F
:1035F000520530E0F901E353FB4F80819181BE0118
:103600000E9467327093090460930804F901E15342
:10361000FB4F80819181BE010E9467327093070445
:1036200060930604F901EF52FB4F808191819093E2
:10363000D6058093D505BBC0A0905205B12CF501ED
:10364000E353FB4F60817181828193810E944530F9
:103650006093D1057093D2058093D3059093D405E0
:10366000F501EF52FB4F6081718180E090E00E9494
:1036700045306093E2057093E3058093E4059093F1
:10368000E50595C020912E04E091520524FD16C059
:103690008E2F90E0DC01A353BB4F6D917C91E69E91
:1036A000A001E79E500D112450931206409311067D
:1036B000DC01A253BB4F8C9180930C0626FD0AC0FF
:1036C000AE2FB0E0AE52BB4F8D919C9190930E0601
:1036D00080930D06F0E0E053FB4F8081809301045E
:1036E00066C08091540590915505A0915605B09102
:1036F00057059D7F54C08091540590915505A09128
:103700005605B09157059B7F4AC060914F05F8015F
:103710008F2D11928A95E9F7812C912C5401839475
:103720006623A1F1E091520581E08E0F809352054E
:10373000F0E0E353FB4F408128EF36E0042E000C0D
:10374000550BF901849190E04817590799F4C90184
:103750000296FC01A591B4914D905D906D907C9086
:103760001397482859286A287B284D925D926D92BC
:103770007C9213972C5F3F4FF7E028313F0709F702
:10378000880C991CAA1CBB1C6150CACF809154059F
:1037900090915505A0915605B0915705977F80935C
:1037A000540590935505A0935605B09357050E9474
:1037B000AA12882369F012C0843251F40AC021E0B1
:1037C0002E0F20934D05F0E0E353FB4F808301C0A3
:1037D00090E0909350050E946012FFCDDF91CF9151
:1037E0001F910F91FF90EF90DF90BF90AF909F904F
:1037F0008F907F906F905F904F900895CF93C82FD8
:1038000084E20E94A62E8DE40E94A62E8CE30E94E4
:10381000A62E80E00E94A62E8C2F0E94A62E8C2F12
:103820000E94A62ECF9108958FEF91E0A0E0B0E026
:103830008093540590935505A0935605B093570572
:10384000E8E5F5E080819181A281B3819170AA279A
:10385000BB2780839183A283B38308950F931F9323
:103860008091C60481110BC00E94772E60E072EC3B
:1038700081E090E00E94382E81E08093C604909110
:10388000C50481E089278093C5048111A5C0CCDFE0
:103890008091580590915905A0915A05B0915B050A
:1038A000892B8A2B8B2B81F480915405909155059F
:1038B000A0915605B09157058093580590935905EE
:1038C000A0935A05B0935B05409158055091590556
:1038D00060915A0570915B0588279927DC01841B4C
:1038E000950BA60BB70B84239523A623B7238C0136
:1038F0009D0100951095209530954023512362231A
:103900007323409358055093590560935A0570935B
:103910005B0580349105A105B10509F44FC020F580
:1039200084309105A105B10509F454C068F48130D3
:103930009105A105B10509F44BC00297A105B10598
:1039400009F04AC085E647C080319105A105B1055F
:1039500089F180329105A105B10571F10897A105A2
:10396000B105D1F589E637C0811522E09207A1059E
:10397000B10541F160F480389105A105B10501F16F
:1039800081159140A105B10539F58EE624C0811558
:1039900028E09207A105B105B9F0811520E1920751
:1039A000A105B10599F081159440A105B105A1F4D7
:1039B00080E711C08AE60FC08BE60DC08CE60BC015
:1039C0008DE609C08FE607C087E705C08CED03C010
:1039D00084E601C086E612DF1F910F91089584E20C
:1039E0000E948E1396FF08C08091D70590E08C54FA
:1039F0009F4F0E94BB1304C08091D5059091D605BE
:103A0000880F991F8D966AE570E00E947B3277FFE0
:103A100003C0685F7F4FFBCF67707727FB01E951D9
:103A2000FD4F8491089587FD03C0D9DF0E94B6063B
:103A30006091D5057091D60589EE96E00E947E07CB
:103A400085E00C94B606FF920F931F93CF93DF93FC
:103A5000F82ED92F96FD0CC06D2F81E08F0D0E949E
:103A600080068091950381FD1CC00E94670919C0E2
:103A7000C5E082EB0E94B6061DE0115019F00E94CD
:103A80002C09FBCFC33011F083EB01C085EC0E9401
:103A9000B6060E942E09C150F9F2C33051F786ECE8
:103AA000E9CFD4FF48C081E090E09093CC048093AC
:103AB000CB04F6FC07C093DF482F62E085E00E944C
:103AC000C70639C08091B405811104C08091B50545
:103AD0008823E1F08091B8059091B9059093BB05DA
:103AE0008093BA058091B6059091B7059093B9057A
:103AF0008093B8058091B4059091B5059093B70572
:103B00008093B6051092B4051092B50500E010E060
:103B1000C2E0F801EC54FA4F87816C2F681B868154
:103B200044E28B5F0E94C706025011090A3F4FEF23
:103B3000140779F7C0CFF7FC08C062E085E00E9467
:103B4000910689E991E00E94EC0FD5FFB2C0809107
:103B5000A503882309F4ADC08091320481117BC094
:103B60006091D8057091D9058091DA059091DB05B7
:103B70000E9447309B01AC0160E070E0CB010E94E5
:103B8000522F21EE3EE245EE52E40E9460310E9447
:103B900014306A5071092DE2269FC001279F900DB5
:103BA00011246AE070E00E947B32CB018D9697FD74
:103BB00001969595879569E070E00E947B32D62F3B
:103BC000653058F4CFECC81B4C2F8CE00E94C70620
:103BD0004C2F6D2F81E00E94C7068091D70590E0A1
:103BE00020910D0130910E01821B930B0E94BB139B
:103BF000853B910534F028E631E0A901481B590BBB
:103C0000CA019C01245B310948E4429FC001439FE3
:103C1000900D11246AE070E00E947B32CB01849603
:103C200066E070E00E947B3267FD07C06D3044F4AF
:103C3000DFEBD80FC1E0C60F05C0C1E0DCE302C076
:103C4000CCE0DEE34D2F64E08C2F0E94C7064D2FA1
:103C500060E08C2F2CC06091D1057091D2058091CD
:103C6000D3059091D4050E94EB0D20E030E040EAAE
:103C700050E40E94DF2E2DEC3CEC4CE850E40E9416
:103C800060310E941430862F9FEF960F9B3238F4DC
:103C900069E00E945A324FEC491B682F07C06C3212
:103CA0001CF064E04EE202C060E04FEC86E00E944F
:103CB000C706CDB7DEB7E5E00C941433ABE0B0E057
:103CC000E4E6FEE10C94EB320E9466286B017C0175
:103CD0000E94E905809132041091A503811114C05E
:103CE000112301F18091A90380FF1CC06091C505DB
:103CF0007091C6058091C7059091C8050E94143047
:103D0000623071053CF40EC011110CC08091A60305
:103D1000882341F0C0922506D0922606E09227061D
:103D2000F09228061093A60380917504853018F050
:103D300084E0809375048DEB95E00E94DF0F853C55
:103D4000994080F11092C5051092C6051092C705E2
:103D50001092C80562E085E00E9480066091C3056C
:103D60007091C4058091C1059091C205681B790BC3
:103D700086E891E00E947E074091BC035091BD030C
:103D80006091BE037091BF03411551056105710536
:103D900031F02AE030E084E293E00E941F2A83E0C1
:103DA00094E469C080912F0480FF68C01091A5033E
:103DB000111123C08091250690912606A091270617
:103DC000B0912806892B8A2B8B2BB9F060913D0688
:103DD00070913E0680913F06909140060E941430FB
:103DE0006630710554F081E08093B2030E942B0786
:103DF0008091BC0580937B033CC08091B2038823F3
:103E0000E9F180917B039091BC05891721F08093A3
:103E1000BC051092B20382E00E944007092E000CFC
:103E2000AA0BBB0BB7FF07C0B095A09590958195E5
:103E30009F4FAF4FBF4F8D329140A105B1050CF0A0
:103E4000A9C283E00E944007092E000CAA0BBB0BFD
:103E5000B7FF07C0B095A095909581959F4FAF4F44
:103E6000BF4F8D329140A105B1050CF093C21111E5
:103E700091C281E091E00E94F50E8FC2809175049D
:103E8000882321F09091BC05981740F500E313E0DA
:103E9000F801B490C8010196FC01C590D490C114FA
:103EA000D10409F47AC28B2D8F770E948E137C0186
:103EB0000E947C07F7FC0AC0E7FC0AC0F8013396B1
:103EC0008491882329F00E94B60602C0B7FE03C081
:103ED000C701F60109950C5F1F4FDACF8091A5034A
:103EE00081114FC21D821E821F8218860E942B07DD
:103EF0004091AB05A42EB12CF5E04F9FA0011124F9
:103F0000FA01EC5FFB4F8591949190937603809337
:103F10007503FA01EA5FFB4FF490C12CD12CE12C20
:103F20001A861B86312C212C1986EF1409F4BEC089
:103F3000552453945E0C00917503109176030C0D7B
:103F40001D1DF80185909490652D81E00E948006EA
:103F5000C4010E94EC0F652D83E10E9480068091D0
:103F60000901E81203C08EE30E94B606F8013296FA
:103F7000E491EF77E33609F457C080F4E234B9F105
:103F800020F4EE2309F48DC06FC0EA3509F44AC06D
:103F9000E23609F069C0442443942BC0E836D9F0D6
:103FA00088F4E63609F060C0F8013396A591B49123
:103FB0008D919D910D90BC91A02D8D839E83AF839B
:103FC000B88752C0E33709F445C0EA3709F04CC05E
:103FD00020E1298729C080911303803419F087E1FB
:103FE00091E002C08FE191E00E94EC0F5AC06AE0BC
:103FF000462EF8013396A591B4916C9170E080E063
:1040000090E00E9447303B014C01642D70E080E05D
:1040100090E00E9445309B01AC01C401B3010E94B5
:10402000AC2F13C080E28987F8013396A591B49133
:104030006C91062E000C770B9985691B7109072E70
:10404000000C880B990B0E9447306D837E838F8311
:1040500098870AC0F80133966591749144E050E066
:10406000CE0105960E94EF0C80910901BD81AE81C1
:104070003F812885E81203C0BA87AB871901F80190
:104080003596E491E295EF70F0E0EE0FFF1FE258F5
:10409000FB4F859194914B2F5A2F632F722F0E94C3
:1040A000A30BE6E0CE0ED11CE52C3FCF85E08A9D28
:1040B000F0018B9DF00D1124E95FFB4F85919491E8
:1040C000009711F0FC0109958091AD03882309F454
:1040D00064C11092AD0311E010939E0381E00E9431
:1040E00040078739910514F081E004C08A369F4F5C
:1040F00024F48FEF0E94500750C183E00E944007D4
:10410000873991055CF0109309018091AB058230ED
:1041100019F41092AB0541C18F5F0CC08A369F4FD6
:1041200064F4109309018091AB05811102C082E013
:1041300001C081508093AB0530C1609109016F5F70
:1041400084E10E948006809109010091750310911D
:104150007603480196E0899F800C911C112480E031
:104160000E9440075C0197FF06C0B194A194B1087A
:10417000EE24E39401C0E12CF4013396C590D49071
:10418000F4013296249129878A859B85A32DB22D2F
:104190008D839E83AF83B887122F1F77143640F428
:1041A000123680F4123461F01A3509F048C00AC0A2
:1041B000133751F11A3731F0163609F040C024C0D8
:1041C0000AE001C001E08DE2A81681E0B8063CF0EB
:1041D000412C512C40E2642E41E4742E06C0412C47
:1041E000512C30E8632E3FE3732E602F70E080E0A7
:1041F00090E00E9447309B01AC01C301B2010E94D4
:10420000AC2FFF24F39420C0C50164E670E00E9447
:104210007B32FB01EE0FFF1FE35FFE4F6081718178
:1042200080E090E00E9445309B01AC0160E070E0CE
:1042300080E89FE30E94AC2F24E0F22E04C060E0EF
:1042400070E080E89FE301E0E5E6AE16B1040CF40F
:1042500046C0E1109058AB01BC01CE0105960E940A
:104260006612F4013596E491EF70F4E0EF9F3001AF
:104270001124F301EC57FB4F65917491072E000C4C
:10428000880B990B0E9447304B015C019B01AC01EC
:104290006D817E818F8198850E94A52F87FF04C044
:1042A0008D829E82AF82B886F301EA57FB4F6591FB
:1042B0007491072E000C880B990B0E9447304B011C
:1042C0005C019B01AC016D817E818F8198850E948C
:1042D0005531181624F48D829E82AF82B8868D8067
:1042E0009E80AF80B8842A853B85432D522DC50121
:1042F000B4010E94A52F882309F44FC0602F70E0FD
:1043000080E090E00E944730A50194010E94603156
:104310000E9414301336C1F038F41A3589F0123681
:10432000A9F0123401F512C0133799F01A3751F081
:104330001636C9F4F60180829182A282B38213C03C
:1043400080E203C080E101C080E0680FF601608375
:104350000AC089829A82AB82BC8244E050E0B601F6
:10436000CE01019606C04F2D50E0B6016E5272404C
:10437000C6010E94780DF985F7FF0FC00E9427063D
:104380000CC083E093E00E947C0783E093E00E94EE
:104390003B1103C01092B2036CCD2B96E2E10C945A
:1043A00007331F920F920FB60F9211242F933F9352
:1043B0004F935F936F937F938F939F93AF93BF932D
:1043C000EF93FF9381E08093970310929D03809178
:1043D0009C038F5F80939C0379D6609398037093BE
:1043E000990380939A0390939B038091C003882341
:1043F00021F00E94CE061092C003FF91EF91BF9171
:10440000AF919F918F917F916F915F914F913F916C
:104410002F910F900FBE0F901F90189563D64B9B56
:1044200009C060938F0370939003809391039093DE
:104430009203089520918F0330919003621B730BB8
:10444000709394036093930310928F0310929003E0
:10445000109291031092920308951F920F920FB63B
:104460000F9211242F933F934F935F936F937F93FA
:104470008F939F93AF93BF93EF93FF93CFDFFF9102
:10448000EF91BF91AF919F918F917F916F915F91CC
:104490004F913F912F910F900FBE0F901F90189545
:1044A000CF93DF930FB6F894A89580916000886150
:1044B00080936000109260000FBE60E071EE80E0BB
:1044C00090E00E94382E4FE450E060E072E08EE20F
:1044D00094E00E94EF0C80912E0481FD03C08BE2DA
:1044E00097E002C088E197E090932D0480932C041C
:1044F000809148048F3421F4809149048A3119F065
:1045000081E08093B70384B58C7F84BD80912F04B4
:1045100084FF02C081E001C083E0F7D680917A0079
:104520008B7F80937A0080917A00866080937A00F6
:10453000809169008C7F826080936900E89A809105
:104540003304813049F453985B9A80916900837FEA
:10455000846080936900E99A0E94D00578948091E4
:104560004A04893341F480914B04843321F48091CF
:104570004C04853389F089E380934A0484E3809373
:104580004B0485E380934C0443E050E06CE172E01F
:104590008AE494E00E94780D80917B04882351F096
:1045A00010927B0441E050E06DE472E08BE794E010
:1045B0000E94780D80917304882309F430C0E09143
:1045C0007404EE2361F1F0E0E65FFE4FE4918E2F7C
:1045D00090E0FC01E456F84FC491FC01E857F84F15
:1045E000849180938E03D0E0CC0FDD1FFE01E65452
:1045F000F84F8591949190938D0380938C0380E084
:104600000E945719FE01EC53F84FA591B4919FB742
:10461000F8942C9180918E03822B8C939FBF0E94E3
:1046200069060E94CE060E94B2190E94C713DF914C
:10463000CF910895E0910301EF5FE0930301E770EC
:10464000F0E0EE0FFF1FE355FB4F9183808388E07E
:1046500060E070E08150E82FF0E0EE0FFF1FE355BF
:10466000FB4F20813181620F731F8111F3CF80E0F6
:1046700090E00E94453020E030E040E05EE30C94A2
:10468000603197FD05C08F3F910509F01CF4089536
:1046900080E008958FEF0895A0E0B0E0E2E5F3E256
:1046A0000C94F53280912E0484FD05C08091800326
:1046B000882309F484C0C0910201CF5FC093020136
:1046C00080E126D6C770EC2FF0E0EE0FFF1FE35617
:1046D000FB4F9183808388E0C0E0D0E08150E82FD9
:1046E000F0E0EE0FFF1FE356FB4F20813181C20F38
:1046F000D31F8111F3CF209184033091850347E0CC
:10470000429FC001439F900D11248C0F9D1FB3E069
:1047100096958795BA95E1F79093850380938403E6
:1047200080912E0484FF4BC029E53EEE49E050E421
:1047300060915004709151048091520490915304FF
:104740000E9460316B017C01BE0180E090E00E941C
:1047500045309B01AC01C701B6010E9460310E9447
:1047600019308B019C01709312066093110681E051
:1047700080939E03E09137048E2F61E20E944E32B7
:10478000482FC801C29664E670E00E946732F0E0EC
:104790009B012E1B3F0BAFEFB0E00E94D2325AE2DA
:1047A000459F900111242E1B3F0B032E000C440B40
:1047B000550B0E94B032C90164DF80930C068091D2
:1047C0002E0485FF04C08091B903811105C080913A
:1047D0008103882309F481C0C0910101CF5FC09398
:1047E00001018EE095D5C770EC2FF0E0EE0FFF1FB2
:1047F000E357FB4F9183808388E0C0E0D0E0815095
:10480000E82FF0E0EE0FFF1FE357FB4F20813181CF
:10481000C20FD31F8111F3CF2091860330918703FC
:1048200047E0429FC001439F900D11248C0F9D1FB4
:1048300063E0969587956A95E1F790938703809357
:10484000860380912E0485FF48C029EA3CEC48E0AD
:1048500050E46091540470915504809156049091F5
:1048600057040E9460316B017C01BE0180E090E042
:104870000E9445309B01AC01C701B6010E94603126
:104880000E9419308B019C017093100660930F06F3
:10489000E09170048E2F61E20E944E32482FC801D1
:1048A000C29664E670E00E946732F0E09B012E1B26
:1048B0003F0BAFEFB0E00E94D2325AE2459F900129
:1048C00011242E1B3F0B032E000C440B550B0E9492
:1048D000B032C901D6DE80930B0680912E0486FD8E
:1048E00005C080918203882309F480C080917E03F3
:1048F000882349F020E137E240E050E061E08FE0BA
:104900007FD4CB0102C08FE003D5E0910001EF5FBF
:10491000E0930001E770F0E0EE0FFF1FE358FB4F5C
:104920009183808388E0C0E0D0E08150E82FF0E000
:10493000EE0FFF1FE358FB4F20813181C20FD31FC1
:104940008111F3CF209188033091890347E0429F82
:10495000C001439F900D11248C0F9D1F33E096954D
:1049600087953A95E1F79093890380938803809126
:104970002E0486FF3BC02DE032E348EC5CE36091FF
:1049800058047091590480915A0490915B040E94DC
:1049900060316B017C01BE0180E090E00E944530F7
:1049A0009B01AC01C701B6010E9460310E94193021
:1049B00040910D0650910E064115510529F4709352
:1049C0000E0660930D0612C09A01220F331F240FAA
:1049D000351F2E5F3F4FA901460F571F569547952C
:1049E0005695479550930E0640930D0680913C04D2
:1049F0008695813041F038F1823041F0833039F5CD
:104A00008091000422C081E183D408C020E23EE40A
:104A100040E050E061E081E1F3D3CB010BDE209177
:104A20005C0430915D0440915E0450915F040E94EB
:104A300060310E9419307093FF036093FE0381E0A0
:104A400080939E0337C08091010490E004C0809160
:104A5000210690912206EEDD0E9419307093FF032B
:104A60006093FE0380918303882321F180917F036B
:104A7000882341F020E137E240E050E061E081E14D
:104A8000BFD303C081E144D4BC0180918A039091DB
:104A90008B0347E0489F9001499F300D1124620F1E
:104AA000731F83E0769567958A95E1F770938B0382
:104AB00060938A03CDB7DEB7E8E00C94113381E050
:104AC0000E9457190C942E1C8F929F92AF92BF9206
:104AD000CF92DF92EF92FF921F93CF93DF93A8952F
:104AE0007894F4D26B017C0128EE33E040E050E092
:104AF0000E948E323093C4052093C3052CEDC2165C
:104B000025E0D206E104F10448F08091B703811159
:104B100005C0EDECF4E090E481E012C00E94B2190F
:104B200059C22091A10321110FC02091AA03211184
:104B30000BC0DF01292F1D922A95E9F78093A1036D
:104B40002091A003222369F30E94D4198091A0032D
:104B50008093A10380919E03882309F43FC11091A3
:104B6000BC0580913304833008F42DC1833029F4CF
:104B7000C0919303D091940311C09BEF980F943090
:104B800048F4E82FF0E0EE0FFF1FEF5EF94FC08111
:104B9000D18104C0C0912106D09122069E012052ED
:104BA00033402939384008F00EC120910601309178
:104BB0000701C217D30720F4D0930701C093060161
:104BC00020910401309105012C173D0720F4D0936A
:104BD0000501C0930401843001F58091EE0588231E
:104BE00089F01092EE0560E070E08AEE95E00E9498
:104BF000BB0D9091EE0580910A01981303C081E0EE
:104C00008093A2038AEE95E00E94DF0F813D9740DA
:104C100008F4AAC010920A01A7C08091380481113B
:104C200021C02091040130910501809106019091ED
:104C30000701609175048C179D0768F4C81BD90B98
:104C4000D901A81BB90BCD0170E00E946732CE01DB
:104C50000E94673201C060E0161709F485C06093B6
:104C6000BC0582C080912E0482FF3EC08091A905C0
:104C70009091AA05C817D90709F448C09E01281BBE
:104C8000390B293C310508F441C08091A70590916A
:104C9000A805C817D90731F0AE01481B590B483C8D
:104CA000510578F48AEE95E00E94DF0F893E93402B
:104CB00018F081E08093A2031092A8051092A70536
:104CC00025C060E070E08AEE95E00E94BB0D809107
:104CD000A9059091AA059093A8058093A705D09364
:104CE000AA05C093A90512C02091040130910501C5
:104CF0008091060190910701280F391F369527955D
:104D00002C593F4F81E02C173D0708F080E090912F
:104D10002E0490FF10C0882321F081E08093A3032C
:104D200023C08091A303882319F081E08093A2031C
:104D30001092A30319C08823B9F08090EA059090DF
:104D4000EB05A090EC05B090ED05C0D18616970656
:104D5000A806B90648F481E08093A20364EF71E0ED
:104D60008AEE95E00E94BB0D8091A203882369F032
:104D70001092A2038091BC058F5F8093BC05909137
:104D80007504981710F41092BC05C091BC051C174F
:104D9000D1F00E94C7138091B303811112C0A7EC18
:104DA000B3E0E2E0F1E084918D9331968111FBCF85
:104DB0008091CE03C80FC093CE0363E088E00E94C9
:104DC000AA131092B30380919F03811105C081E063
:104DD00080939F0380939D0310929E0380919F0375
:104DE000882351F180919D03811126C010929F0369
:104DF0008091E005882319F081E08093AF039091C2
:104E0000A5038091A703992309F4B3C081110DC0B4
:104E10001092AC0381E08093A7031092EF051092EB
:104E2000F0051092F1051092F2050E94E9170E9418
:104E30005E1E81E08093C0038091FB059091FC058C
:104E4000A091FD05B091FE058C159D05AE05BF0531
:104E5000B0F464E170E08BEF95E00E94D20D2FDE9C
:104E60008091C003882359F080919D03882339F0F5
:104E700088E993E00E94DF0FC39708F087C0809114
:104E8000F7059091F805A091F905B091FA058C15F8
:104E90009D05AE05BF0528F564E670E087EF95E057
:104EA0000E94D20DF9DB9091AE0381E089278093B7
:104EB000AE038823B1F08091BB03882369F08F5F34
:104EC0008093BB03833068F0809102048F5F8093EE
:104ED00002041092BB0305C0809102048F5F80938F
:104EE00002048091F3059091F405A091F505B0912D
:104EF000F6058C159D05AE05BF0508F06BC064EF87
:104F000071E083EF95E00E94D20D81E080939E03D3
:104F10008093AD03909103049F5F9093030490915D
:104F2000AA0398279093AA03992309F453C0809366
:104F3000A4038091B803882399F080916503909130
:104F40006603A0916703B09168030196A11DB11D8E
:104F50008093650390936603A0936703B0936803FF
:104F6000809197038823C9F080919C03853040F19C
:104F700014C0882309F459CF8091BA03882309F417
:104F800054CF1092AC031092A7034FCF10929D0301
:104F90000E94CE061092C00372CF10924906109262
:104FA0009C0380913903882319F081508093390341
:104FB00080914A03882371F0815080934A030AC08C
:104FC000809149068F5F80934906843040F30E94A8
:104FD0004406E5CFDF91CF911F91FF90EF90DF90D6
:104FE000CF90BF90AF909F908F900895E4E2F3E050
:104FF0001382128284E191E09183808380E293E0C6
:105000002FD6EEE3F7E088E992E0968B858B8CE96A
:1050100092E0948F838F80EB92E092A381A384EB44
:1050200092E090A787A388EC92E096A785A78CECE6
:1050300092E094AB83AB08951F920F920FB60F923C
:1050400011242F933F938F939F93AF93BF9380919E
:105050004A0690914B06A0914C06B0914D063091B6
:10506000520623E0230F2D3720F40196A11DB11D18
:1050700005C026E8230F0296A11DB11D20935206FC
:1050800080934A0690934B06A0934C06B0934D062E
:1050900080914E0690914F06A0915006B091510616
:1050A0000196A11DB11D80934E0690934F06A093CB
:1050B0005006B0935106BF91AF919F918F913F9150
:1050C0002F910F900FBE0F901F9018952FB7F89447
:1050D00060914A0670914B0680914C0690914D0666
:1050E0002FBF08953FB7F89480914E0690914F06D8
:1050F000A0915006B091510626B5A89B05C02F3F40
:1051000019F00196A11DB11D3FBFBA2FA92F982FED
:105110008827820F911DA11DB11DBC01CD0142E068
:10512000660F771F881F991F4A95D1F70895CF9270
:10513000DF92EF92FF92CF93DF936B017C01D2DF7E
:10514000EB01C114D104E104F10471F0CBDF6C1B5D
:105150007D0B683E7340A8F381E0C81AD108E108CE
:10516000F108C851DC4FEDCFDF91CF91FF90EF9068
:10517000DF90CF900895019739F0880F991F880F1D
:10518000991F02970197F1F70895789484B582608A
:1051900084BD84B5816084BD85B5826085BD85B5DB
:1051A000816085BDEEE6F0E0808181608083E1E88A
:1051B000F0E01082808182608083808181608083C2
:1051C000E0E8F0E0808181608083E1EBF0E08081C5
:1051D00084608083E0EBF0E0808181608083EAE797
:1051E000F0E0808184608083808182608083808120
:1051F000816080838081806880831092C1000895DF
:10520000A0E0B0E0E6E0F9E20C94F13290E0FC01BD
:10521000E857F84FA491FC01E456F84F84916623B7
:1052200011F0BA2F01C0B0E089019A013F7090E0FF
:10523000880F991F8055984F480159014FEF841AE4
:10524000940AA40AB40AC12CD12C7601FC01C591A0
:10525000D49168816A236B131AC05FEFC51AD50A0F
:10526000E50AF50AC814D904EA04FB0479F745C035
:10527000460157016FEF861A960AA60AB60AC016AB
:10528000D106E206F30609F438C075016401FC0199
:10529000C591D49168816A236B13EACFB901A80143
:1052A0004C195D096E097F096A017B0120E030E03D
:1052B000A901FC01C591D49168816A236B130AC0CE
:1052C0002C153D054E055F05C1F02F5F3F4F4F4F39
:1052D0005F4FEFCFA5E1B0E00E94E132DC01CB01EE
:1052E0004096A11DB11DBC01CD0124E09695879586
:1052F000779567952A95D1F703C060E070E0CB0100
:10530000CDB7DEB7ECE00C940D3380930F01089518
:105310008E3008F08E50877020910F0190E4299F05
:1053200090011124822B80937C0080917A0080640C
:1053300080937A0080917A0086FDFCCF809178007E
:105340002091790090E0922B0895A0E0B0E0EBEA84
:10535000F9E20C94F5326C01EB017B01E40EF51ED1
:1053600000E010E0CE15DF0561F06991D601ED9106
:10537000FC910190F081E02DC6010995080F191FDD
:10538000F1CFC801CDB7DEB7E8E00C941133611559
:10539000710581F0FB0101900020E9F73197AF0121
:1053A000461B570BDC01ED91FC910280F381E02D4F
:1053B0000995089580E090E00895E9CF0895DC0113
:1053C000ED91FC910190F081E02D09950895A1E205
:1053D000B0E0EDEEF9E20C94F1326C01142FE52F00
:1053E000CB01022F19A2223008F40AE07E0121E24B
:1053F000E20EF11C802E912CA12CB12C612F7E2F5E
:10540000A50194010E948E32029F1019112481E09F
:10541000E81AF1081A3014F4105D01C0195CF701A4
:105420001083122FE32FCA01232B242B252B31F7B6
:10543000B701C601ACDFA196ECE00C940D33211549
:10544000310549F4DC01ED91FC910190F081E02DF2
:10545000642F09950895BBCF9A01AB0160E070E01D
:10546000EECFA0E0B0E0E7E3FAE20C94F5328C0175
:105470006A017B012115310549F4DC01ED91FC91B4
:105480000190F081E02D642F09951AC02A30310572
:1054900099F477FF10C06DE292DFEC0144275527A5
:1054A000BA014C195D096E097F092AE0C8018FDF36
:1054B0008C0F9D1F05C02AE0B701A601C80187DF38
:1054C000CDB7DEB7E8E00C9411339A01AB01770F4A
:1054D000660B770BC6CF59DE0E945022C5ECDEE288
:1054E000F3DA2097E9F351D4FBCF0F931F93CF93B7
:1054F000DF938C01FB016491EF012196662351F04B
:10550000D801ED91FC910190F081E02DC801099541
:10551000FE01F1CFDF91CF911F910F910895A0E08F
:10552000B0E0E5E9FAE20C94FB329E01275F3F4FC1
:105530004F81588560E08D819E811DD0E2E00C9402
:105540001733A0E0B0E0E7EAFAE20C94FB329E01E8
:10555000275F3F4F4F81588561E08D819E810BD041
:10556000E2E00C941733DC01ED91FC910190F081A5
:10557000E02D09950895A4E1B0E0E1ECFAE20C9485
:10558000EB327C016C871A016901CE0101964C0156
:10559000F1012C8520FD059120FF01911F010023C1
:1055A00009F43DC3053241F420FD059120FF01912E
:1055B0001F01053261F405C00A3019F46DE0C7011E
:1055C000D2DF602FC701CFDF56016501E1CF10E0C8
:1055D000512C712CFFE1F715D8F00B3279F038F42B
:1055E000003279F00332A1F4F72DF0612EC00D32B4
:1055F00061F0003369F4272D21602DC0872D826072
:10560000782E972D9460792E2AC0E72DE86015C07A
:1056100077FC2EC080ED800F8A3088F476FE06C0BD
:105620002AE0129F800D1124182F19C09AE0599E6C
:10563000800D1124582EE72DE0627E2E10C00E3210
:1056400031F476FCECC2F72DF0647F2E08C00C36E6
:1056500021F4272D2068722E02C0083649F4F1018A
:105660002C8520FD059120FF01911F010111B2CF72
:105670008BEB800F833020F4872D8061005E07C0A4
:105680008BE9800F833008F056C1872D8F7E86FF0F
:1056900016E08F73782E053611F4806403C0063649
:1056A00019F48068782E02C01111115077FE06C0DF
:1056B0001C3350F444244394410E08C0183040F089
:1056C000412C27E017E006C04CE3442E27E002C03F
:1056D000212F412C560194E0A90EB11CF6016081E6
:1056E000718182819381042DA4010E94F1046C01D7
:1056F000098100FF02C003FF07C071FC08C072FEF1
:1057000009C030E2632E07C02DE2622E04C09BE286
:10571000692E01C0612C802F8C7019F0611046C277
:1057200077C277FE0FC04C0C04FF04C08A8181331E
:1057300009F44A94141474F5F8E0F41578F588E047
:10574000482E2CC076FC2AC0812F90E08C159D0538
:105750009CF02CEFC2162FEFD20674F0872D8068D4
:10576000782E0AC0E2E0F0E0EC0FFD1FE10FF11D22
:105770008081803319F411501111F4CF77FE0EC0DF
:1057800044244394410E812F90E0C816D9062CF48E
:105790001C1904C04424439401C010E077FE06C0E5
:1057A0001C141D0434F4C601019605C085E090E088
:1057B00002C081E090E061100196112331F0212FA9
:1057C00030E02F5F3F4F820F931F252D30E082176F
:1057D000930714F4581A01C0512C872D897039F49D
:1057E000552029F060E2C701BEDE5A94F9CF662049
:1057F00019F0662DC701B7DE73FC07C0552029F0EC
:1058000060E3C701B0DE5A94F9CF77FE54C09C2DF7
:105810008D2DD7FE02C090E080E0692E782E1E8686
:105820001D86F601E419F109F88BEF87C601861988
:1058300097099A8B898B612F70E0EE27FF27E61B73
:10584000F70BFC8BEB8BFFEF6F167F0619F46EE204
:10585000C70189DEC614D7047CF08F859889861528
:10586000970554F4ED85FE8589899A89E80FF91F1B
:10587000E80DF91D618101C060E391E0691A7108CA
:10588000ED85FE853196FE87ED878B899C896816AC
:1058900079061CF0C70167DED6CF6C147D0409F0D1
:1058A00047C08A81863328F4853309F041C004FD5E
:1058B0003FC061E33DC06A81613309F00F7EC701DB
:1058C00052DE111104C074FC13C065E612C06EE212
:1058D000C70149DE82E066246394680EF401E80F94
:1058E000F11D6081C7013FDE1150862DA1F7EBCF7E
:1058F00065E4C70138DED7FC05C0C114D10439F412
:1059000004FF05C0D194C194D1086DE201C06BE2DF
:10591000C70129DE60E3EAE0CE16D1042CF06F5F08
:105920009AE0C91AD108F7CFC7011DDE60E36C0DFC
:10593000C70119DE4FC1033631F0033779F0033563
:1059400009F050C01FC05601F2E0AF0EB11CF601C5
:105950008081898301E010E0640111C05601F2E00A
:10596000AF0EB11CF601C080D18076FE03C0612F5E
:1059700070E002C06FEF7FEFC60115D28C01F72DEA
:10598000FF7713C0560122E0A20EB11CF601C080C1
:10599000D18076FE03C0612F70E002C06FEF7FEF11
:1059A000C601F6D18C01F72DF0687F2EF3FD16C0ED
:1059B000852D90E00817190788F460E2C701D3DD50
:1059C0005A94F6CFF60177FC659177FE61916F01ED
:1059D000C701C9DD51105A94015011090115110573
:1059E00089F7F8C0043611F0093661F5560177FEE3
:1059F00009C0F4E0AF0EB11CF601608171818281B3
:105A000093810AC0F2E0AF0EB11CF6016081718192
:105A1000072E000C880B990BF72DFF767F2E97FF32
:105A200009C090958095709561957F4F8F4F9F4FDE
:105A3000F0687F2E2AE030E0A4010E949304C82E73
:105A4000C81849C0053731F4272D2F7E622E2AE071
:105A500030E025C0872D897F682E0F36C1F018F4FD
:105A6000083579F0DCC0003719F0083721F0D7C0CD
:105A7000982F9061692E64FE0DC0E62DE4606E2EB5
:105A800009C074FE0AC0F82FF6606F2E06C028E029
:105A900030E005C020E130E002C020E132E05601F4
:105AA00067FE09C084E0A80EB11CF6016081718117
:105AB0008281938108C0F2E0AF0EB11CF6016081D3
:105AC000718180E090E0A4010E949304C82EC81860
:105AD000F62DFF777F2E76FE0DC0272D2E7FD22E3E
