:1000000069C400000C94B6210C9412228BC4000029
:1000100089C4000087C4000085C4000083C40000B8
:1000200081C400007FC400007DC400007BC40000C8
:1000300079C4000077C4000075C4000073C40000D8
:100040000C9469286FC400000C949D0C0C94C30C94
:1000500069C4000067C4000065C4000063C40000F8
:1000600061C400005FC40000391A4F1AC71BC71BC8
:10007000C71B751A821AD31AEC1A111B371B611B86
:100080006B1BC71BC71BC71BC71BC71BC71B751B0E
:10009000084AD73B3BCE016E84BCBFFDC12F3D6CEF
:1000A00074319ABD56833DDA3D00C77F11BED9E455
:1000B000BB4C3E916BAAAABE000000803F05A84C35
:1000C000CDB2D44EB93836A9020C50B99186880801
:1000D0003CA6AAAA2ABE000000803F0664EC1B3C96
:1000E00004BC163E3BE5B93CC93C37C29E5A3D664E
:1000F0000498083EEA69AAAA3E000000803F030275
:10010000010053637265656E203000100E0F1101FF
:10011000000A006400E80320284E545343290020BD
:100120002850414C290025372E32660025362E31C5
:1001300066009125372E326600A125372E326600E3
:1001400026010B68A505002C018F683F06002C01D5
:1001500014739D05002C011D739505002C01126878
:10016000990500320190768D05003901A076890548
:10017000002C01BD619105002C0157778505002CED
:100180000101663B06004E6F20696E707574206435
:1001900061746121202575FF00B8B9002534690517
:1001A00007002534690506006F7665726C6F61641F
:1001B0000066726F7A656E0053747265616D00251A
:1001C00034690500FF20CECECECE60CECECECE009E
:1001D000FF20202024CB7C40CB24008280818081A2
:1001E00080848081808180838081808180858081FE
:1001F00080818020C8C8C8C87EC8C8C8C820FF0081
:1002000020202024CBB8B9CB24202020FF00205868
:10021000650025322E3066002520342E30660025FC
:1002200020342E3166002520342E326600522533CC
:100230002E306605005025332E30660500482533E4
:100240002E306605004225352E31660500452535E0
:100250002E3166004525342E30666D0073452535F8
:100260002E3166002D026E6939060035026E69373F
:1002700006003D026E6935060045025469330600EA
:100280004D0241682F0600540258692506005C02A1
:1002900041732B06002090910025352E31660043D6
:1002A0002564253569FF002569001F1C1F1E1F1EC0
:1002B0001F1F1E1F1E1F25303269FF003A253032D6
:1002C000693A0020207820207920207AFF0020B38E
:1002D000FF20B3FF20C5FF20B3FF20B300B2FFB261
:1002E000FFC6FFB2FFB200B0B1B4B5B6B77B7D4276
:1002F000616420436F6E6669673A202564206D79DA
:10030000203739004D696E696D4F53442D4578741F
:100310007261204D535020322E34FF756E69207269
:10032000393434204456FF0023317A7A7A7A0A002D
:1003300015081D0001220800021B0800830416BCDA
:1003400084D215260537080007DE100034030C039D
:1003500035FF0B0418BB0800065D1400088510006B
:1003600009F81C0025F50E0019400C000D0D145C59
:1003700011B40F11165B0E1212600F14175B0F13DE
:10038000132609021429087F8F2B16BD2EBE0B578A
:100390001B60161D9C3713151DF10E000E991609D2
:1003A0001EEE160021100C0020850C0022640E8F1A
:1003B000246B0F1F2BB80B1F2C0A13002DE3120008
:1003C0002FC41200A7680D00A8650D00A9620D00DA
:1003D000AA5F0D001F580B0026FB0A00308F070094
:1003E00031940800333009002361100032F10F000E
:1003F0000AF813008B440E0B365215009A3B11007D
:100400000000000036040C0000180405F70A3E073F
:10041000096B0D00000000002E05680000001405A7
:1004200066620425210566660425F804666A0425CB
:100430000605666E0425E10500000000D10542397D
:100440000400C20542720400B40562380410A2051B
:10045000623704109105623F041084056240041065
:100460007405000000006605627704115D056236C0
:1004700004124D055A7404133F057A730414AE0434
:10048000A904A4040000FF00010004000000030010
:10049000E1FF1F00F1FF0F00FCFF0400C0E0401F60
:1004A0009CFF6400252E336600252E306600253320
:1004B0002E316676003420285253534929204B00B0
:1004C00033202843757272656E7429204B003220E8
:1004D00028563229204B00202020202020204100B7
:1004E000312028563129204B0020202050696E20D1
:1004F00053656E736F727300526F6C6C2020696E5F
:10050000204E54534300506974636820696E204E36
:1005100054534300526F6C6C2020696E2050414C44
:1005200000506974636820696E2050414C0020209F
:10053000486F72697A6F6E20616E676C65730056E2
:100540006572746963616C206F66667300486F72D0
:10055000697A6F6E74616C206F66667300436F6EAC
:1005600074726173740053637265656E7320436FB8
:10057000756E7400202053637265656E2070617221
:10058000616D730052535349207761726E696E67D3
:1005900000426174742063686172676520776172DC
:1005A0006E004F7665727370656564207761726E58
:1005B000696E67005374616C6C207761726E696E4E
:1005C0006700426174742032207761726E696E67D1
:1005D0000042617474657279207761726E696E672A
:1005E000002020204F5344207365747570002E2521
:1005F0003032640043256920001D060A06050618EE
:100600000614060F06686F726900616E676C0070F1
:100610006F73680072746C00616C7468006163725F
:100620006F0030062A063D06370625392E3566004E
:100630002531302E3666002530356C640025303685
:100640006C6400C206BA06B006A4069A068E06833B
:100650000679066E06640659064D6F746F72206443
:100660006561640046656E6365204661720046659B
:100670006E636520486967680046656E6365204C57
:100680006F7700426174742042206C6F7700486974
:1006900067682056537065656400204C6F77205260
:1006A0007373690042617474657279204C6F7700CE
:1006B0004F76657253706565640020205374616CD9
:1006C0006C004E6F20475053206669780025342E09
:1006D00030660025342E31660025342E3266002522
:1006E000352E32660025326900253369002E253407
:1006F000690025332E30660000016205010266059F
:1007000002036A0503046E05050072050A067605F4
:100710000B077A0513007E0552B80E4085EB514059
:100720001966BB0012800C1CA0141E666666400091
:1007300000803F100CBA000A00001BE8031AE9040D
:1007400000000000E00473800225D70473840227B0
:10075000CE0473000025D70473000027C004730083
:100760000026D70473000027B50473000026D704C1
:1007700073000027000000070002010000030406C8
:10078000000000000000000001020408102040806A
:1007900001020408102001020408102004040404CB
:1007A000040404040202020202020303030303031B
:1007B00000000000230026002900000000002500A2
:1007C00028002B0000000000240027002A006E6192
:1007D0006E00696E660000407A10F35A00A0724EF7
:1007E00018090010A5D4E80000E87648170000E4D6
:1007F0000B54020000CA9A3B000000E1F50500001E
:1008000080969800000040420F000000A086010082
:100810000000102700000000E80300000000640052
:10082000000000000A0000000000010000000000BD
:100830002C76D888DC674F0823DFC1DFAE59E1B1E1
:10084000B796E5E3E453C63AE651997696E8E6C2F0
:100850008426EB898C9B62ED407C6FFCEFBC9C9FF7
:1008600040F2BAA56FA5F490055A2AF75C936B6C19
:10087000F9676DC11BFCE0E40D47FEF520E6B5000D
:10088000D0ED902E0300943577050080841E08007B
:1008900000204E0A000000C80C333333330F986E2B
:1008A00012831141EF8D2114893BE65516CFFEE6E8
:1008B000DB18D1844B381BF77C1D901DA4BBE424AE
:1008C000203284725E228100C9F124ECA1E53D272B
:1008D0000007482511241FBECFEFD8E0DEBFCDBFF3
:1008E00011E0A0E0B1E0EEE0F7E602C005900D9265
:1008F000A233B107D9F726E0A2E3B1E001C01D920F
:10090000AE3DB207E1F714E0CAE6D4E004C0219797
:10091000FE010E941933C836D107C9F70E94B82AD0
:100920000C94132F6DCBFA01AA27283051F12031F6
:1009300081F1E8946F936E7F6E5F7F4F8F4F9F4F73
:10094000AF4FB1E03ED0B4E03CD0670F781F891FB5
:100950009A1FA11D680F791F8A1F911DA11D6A0F83
:10096000711D811D911DA11D20D009F468943F9136
:100970002AE0269F11243019305D3193DEF6CF0135
:100980000895462F4770405D4193B3E00FD0C9F7FB
:10099000F6CF462F4F70405D4A3318F0495D31FD68
:1009A0004052419302D0A9F7EACFB4E0A6959795BB
:1009B000879577956795BA95C9F700976105710591
:1009C00008959B01AC010A2E0694579547953795DB
:1009D0002795BA95C9F7620F731F841F951FA01D35
:1009E0000895283008F027E03327DA01990F311DE8
:1009F00087FD916000966105710539F432602E5FC4
:100A00003D9330E32A95E1F708959F3F30F0803819
:100A10007105610509F03C5F3C5F3D93913008F042
:100A20008068911DDF93CF931F930F93FF92EF92F6
:100A3000192F987F9695E92F96959695E90FFF27A0
:100A4000E05DF74F99273327EE24FF24A701E70144
:100A500005900894079428F4360FE71EF81E491FE6
:100A6000511D660F771F881F991F0694A1F70590E7
:100A7000079428F4E70EF81E491F561FC11D770F73
:100A8000881F991F661F0694A1F70590079428F404
:100A9000F80E491F561FC71FD11D880F991F661FCB
:100AA000771F0694A1F70590079420F4490F561F6D
:100AB000C71FD81F990F661F771F881F0694A9F7B5
:100AC00084911095177041F0D695C7955795479525
:100AD000F794E7941A95C1F7E6EDF7E0689415905E
:100AE000159135916591959105907FE27395E11887
:100AF000F10A430B560BC90BD009C0F7E10CF11EEC
:100B0000431F561FC91FD01D7EF4703311F48A9500
:100B1000E6CFE894015030F0080F0AF400270217DE
:100B200008F4202F2395022F7A3328F079E37D9360
:100B30002A95E9F710C07D932A9589F60694979532
:100B40006795379517951794E118F10A430B560BE3
:100B5000C90BD00998F023957E9173957A3308F0EC
:100B600070E37C932013B8F77E9170617D9330F031
:100B7000839571E37D9370E32A95E1F71124EF905B
:100B8000FF900F911F91CF91DF91992787FD90954D
:100B9000089580E0089580E0089580E00895089524
:100BA0005E9A0895682F80E00C943F12809115039F
:100BB0008861F8CF882311F080E401C080E0909133
:100BC0001503981729F0809315035E98EFDF5E9A5E
:100BD00008955E988091310481FD06C080913004B3
:100BE00083FF1AC081E019C080EA0E944A1280FF88
:100BF00006C081E0DFDF80913004886007C081FF9C
:100C000008C080E0D7DF80913004877F8093300474
:100C100005C082FDE3CF02C080E0CCDF5E9A08957C
:100C2000CF93DF93E0913604E43008F0E0E0F0E0A9
:100C3000E250FF4FC49180E1D1E0D80F6C2F0E94A9
:100C40003F128D2FD032C1F7DF91CF9108955E987A
:100C5000E7DF6091740482E00E943F1260917304A8
:100C600083E00E943F125E9A08955E988CEE0E9487
:100C70004A12682F6F7E8CE60E943F1262E18CE080
:100C80000E943F1293DFE3CFCF935E98C0E1C15043
:100C900089F080EA0E944A12877061F48FEF0E9407
:100CA00056128FEF0E9456128FEF0E9456120E942A
:100CB000AC19EDCF80911503826074DF0E94AC19EE
:100CC000809115038C636EDF0E94A619CEDFCF9151
:100CD0000895569A52985A9A229A2A9AD5DF79DF1D
:100CE000C4CF209116038091170390E03EE1239F2B
:100CF000800D911D1124909333018093320108954A
:100D00008F71809317036F706093160380911503A2
:100D1000803411F0673008F4E4CF63506093160319
:100D2000FBCF90911603690F90911703890F9EE1F5
:100D3000699FB0011124680F711D70933301609396
:100D4000320108952091320130913301213E91E02A
:100D5000390758F4A9014F5F5F4F50933301409317
:100D60003201F901EC5CFE4F808308958F3F31F42E
:100D7000809116038F5F80931603B3CF803209F4FE
:100D800080E0E0CF862FF2DF81E090E00895CF93FE
:100D9000C42FC7DF8C2FEADFCF9108958FEF8093A8
:100DA00014035E9860E085E00E943F1260E086E0F8
:100DB0000E943F1261E084E00E943F125E9AE4E3E9
:100DC000F1E05E9880818EBD0DB407FEFDCF8EB53B
:100DD0005E9A119283E0E531F80798F308951CBC00
:100DE0008F7280658CBD8DB581608DBD8DB58EB5E2
:100DF0000895259A239A24982C98229A80E0EFCF80
:100E000088E193E0F6CFE82FF0E0EE0FFF1FEB5EF6
:100E1000F94F20813181662329F040E253E088E9CF
:100E200098E004C048EE53E080ED97E024173507C2
:100E300080F0241B350B841B950B65E070E00E944D
:100E4000B432C9010E94B432862F653018F084E0B4
:100E5000089580E00895A5E1B6E0EEEAF5E080812E
:100E60009181883E934028F48D919C9111979183B4
:100E700080833296129685E0E63BF80781F7089565
:100E800090E0880F991FDC01AB5EB94FFC01E25581
:100E9000FA4F8D919C9120813181821B930B089593
:100EA000E091AD0535E0E39FF0011124EA5FFB4FCF
:100EB0009491915020910A01609177037091780389
:100EC00087FF03C0222339F004C0882311F02917BB
:100ED00021F0280F03C0292F01C020E0FB0136E0DC
:100EE000239FE00DF11D1124339645915491452B1C
:100EF00039F320930A010895692F02CF7F936F93EE
:100F00009F938F9386E293E09F938F930E94EE2AA4
:100F10000F900F900F900F900F900F900895A0E0FA
:100F2000B0E0E5E9F7E00C944233D92F00916B0370
:100F300010916C0320916D0330916E038091BA0380
:100F4000882309F473C082EBE82E87E0F82EE4E6EC
:100F5000F0E090E9C92EDD24D394C701837099276E
:100F6000892B81F4C701BF010E94B432892B31F46F
:100F7000C701B6010E94B432892B21F461E08EE6EC
:100F800091E003C060E08DE691E0A0E0B0E00817DA
:100F900019072A073B0718F440E050E008C0081B77
:100FA000190B2A0B3B0B8FEFE81AF80AD6CFC42F88
:100FB000FA01E655FD4FE4914130510511F46111FC
:100FC000EF5F8E2F90E0A0E0B0E0081719072A0726
:100FD0003B0750F0081B190B2A0B3B0B4F5F5F4F71
:100FE0004C30510521F7CCE08D2F0F5F1F4FD0E023
:100FF00086FF0EC0B8018FEE95E080DFBE016F5F07
:101000007F4F8EEE95E07ADFB7018DEE96E00DC052
:10101000B7018EEE96E072DFBE016F5F7F4F8EEEFE
:1010200095E06CDFB8018EEE95E068DFCDB7DEB7F6
:10103000E8E00C945E3360910A0470910B0482EA3C
:1010400091E05CCF60910804709109048CE991E013
:1010500055CFE9EFF5E08591949160E070E04EDFC7
:101060008091A703882311F086E880CE08951F930E
:10107000CF93DF93C82F192F8091E205823019F0AA
:1010800020F0DFE003C0DFE101C0DAE2C095CC1F51
:10109000CC27CC1F11F016FF0DC06091E30570E066
:1010A00085EE96E02BDFCC2341F016FF06C08D2F96
:1010B0005DDE03C08D2F5ADEF0CFDF91CF911F91FF
:1010C0000895EF92FF920F931F93CF93DF938C01BC
:1010D000D62FC42F6CE370E00E94B4327C0189EEFD
:1010E00096E00CDFCC2341F0B7018CEB92E006DFF9
:1010F000CF776C2F70E010C0DD2331F08091AC030E
:10110000882311F080E201C08AE330DEC8016CE37D
:1011100070E00E94B432BC0186EB92E0EFDECDB706
:10112000DEB7E6E00C946033CF938091BA03882356
:10113000D9F0C92F609167037091680380916903AA
:1011400090916A032CE330E040E050E00E94DB32F3
:10115000DA01C901C5FF04C0462F406860E003C042
:101160006C2F607440E0ADDFCF91089540E060E007
:10117000A8CF85E2FBCD1F93CF93DF93382F192F94
:10118000209104062F55C0910E06263008F050C05D
:10119000D0E080E09C2F64E670E00E94B432CB0186
:1011A0006138710540F029E820930C0180589109BD
:1011B000EDE0F1E012C02DE820930D0162317105E0
:1011C00050F42091AC03222331F020E220930C0153
:1011D00020930D0109C0ECE0F1E06AE170E00E94AB
:1011E000B4322DE8261B208337FD0AC088E8BEDD17
:1011F00080910C01BBDD80910D01B8DD8EE8B6DD7C
:1012000016FF06C0BE0185EE96E078DEB2DF1AC09A
:1012100060913B0670913C0680913D0690913E06A0
:101220000E9461308EEE96E069DE81E09FDD0AC0AB
:1012300024E6C29FC00111246FEF70E00E94C83203
:10124000EB01A7CFDF91CF911F91089560E070E08F
:1012500089EE96E053DE8DCF80E288CD8FEF86CD8C
:10126000EF92FF920F931F93CF930DE413E0C0E032
:1012700096FD1CC089E0E82EF12CF8018191919136
:101280008F018C549440B7010E94B4328FEE95E0E8
:1012900035DEC13011F4E2DF01C0DEDFCF5FC430E4
:1012A00061F70FC0D9DFCF5FC43059F0F801619109
:1012B00071918F018EEE96E021DEC13099F7CEDF7D
:1012C000F2CFCF911F910F91FF90EF900895ABE077
:1012D000B0E0EDE6F9E00C943833809115038034EA
:1012E00089F48090660490906704A0906804B090A0
:1012F0006904C0906204D0906304E0906404F090AC
:10130000650410C080906E0490906F04A0907004EB
:10131000B0907104C0906A04D0906B04E0906C04AB
:10132000F0906D0480910A0490910B04BC01990F18
:10133000880B990B0E9494309B01AC01C701B60148
:101340000E94AD316B017C018091970380FF04C046
:10135000F7FAF094F7F8F094C701B6010E946130F3
:10136000AB016A35710540F09B012D543F4F293583
:10137000310580F477FDA901473451052CF54A3138
:10138000510534F54A30510540F128E02A8713EF22
:1013900030ED27C06B3571051CF0AB01435B510983
:1013A000CA0157FF03C09195819591098734910532
:1013B000D0F48A319105E0F40A9700F148E04A87B9
:1013C00015EF82EE8B871FC01A861DEC91EC14C0BE
:1013D000E7E0EA8718EFF9ED15C029E02A871DEC50
:1013E00036EC3B8710C01A861DEC41EC4B870BC0D6
:1013F00087E08A871BEF9BEE9B8705C0E9E0EA87C1
:101400001DECF6ECFB8727EA32E94BE25CEBC50109
:10141000B4010E94AD314B015C0125E33AEF4EE887
:101420005CE3C701B6010E94AD316C837D838E837E
:101430009F839CE0292E312C19822A85022E000CD4
:10144000330B398728878981C82E880FDD08609182
:101450000804709109046C0D7D1D072E000C880B8B
:10146000990B0E949430A50194010E94AD310E9415
:10147000553220E030E044EB52E40E94AD312B01C4
:101480003C0120E030E0A9010E94A23120E030E0E0
:1014900040E05FE387FD0BC0C301B2010E942C2F27
:1014A0000E9461307B01EDE2EE0EF11C0AC0C30127
:1014B000B2010E942B2F0E9461307B01FDE2EF0EF2
:1014C000F11C0DE00219222733272C193D093B831B
:1014D0002A83802F90E0281639060CF46FC06C81A7
:1014E0007D818E819F810E9455322B013C013CE021
:1014F000039F602D11246E54062E000C770B880B71
:10150000990B0E9494309B01AC01C301B2010E946F
:10151000AD310E946130F701E60FF71FCF0101974F
:101520008A35910508F048C062E170E00E94C83237
:101530003B014A85442379F031962EEE2603C00103
:10154000279F900D1124E80FF91FF7FD3196F595AF
:10155000E7955E2E01C0512C64E066198FEF800F75
:10156000E0DB3981332379F0053069F4B601D7FE29
:1015700002C06A817B814AE050E086E293E00E94EB
:10158000B22A06E003C08B85850DF0DB5520A1F063
:10159000252D30E088859985281739076CF094E06F
:1015A0006916710449F0E52DE10F4AEF4E0F63E033
:1015B00066198FEF800FEBDB0F5F8BCFF7FE0BC051
:1015C000E981E25EE98334E0231A310844E024161D
:1015D000310449F038CFFBE5EF16F10424F02981FE
:1015E0002E512983F0CF2B96E2E10C94543366E020
:1015F00089E086DB6CCE0F931F93CF93DF938091AE
:10160000C903882309F44DC04091C7035091C80312
:101610002091C5053091C6054217530709F441C012
:101620002091C6038AE1821B87FD0AC060E086958F
:1016300078DB69EC73E086E293E00E942A2A33C0EB
:1016400096FD1DC08195282F30E080910404909173
:10165000C403891B90E0B901660F771F0E94C8324E
:101660004091BD0341110DC0009729F0215031096F
:101670008217930731F421E02093BD0302C080E07C
:1016800090E0EC01C753DC4F8E01065E1F4F89913D
:10169000811102C0E1DD07C069DBC017D107B9F7CE
:1016A000F9CF1092C903DF91CF911F910F91089547
:1016B000292F8091C5059091C6058F7399270297B0
:1016C00010F026FF06C061E474E086E293E00C941B
:1016D0002A2A08950E942B2F20EC3BE649ED57E47F
:1016E0000C94AD31CF92DF92EF92FF92CF93C42F43
:1016F0006B017C01E894F7F8C701B6010E946130E4
:10170000072E000C880B990B0E9494309B01AC01B2
:10171000C701B6010E942B2F9B01AC01C11105C06E
:1017200060E074E284E799E404C060E070E583EC73
:1017300097E40E94AD310E946630CF91FF90EF9008
:10174000DF90CF9008957F936F935F934F939F9314
:101750008F9386E293E09F938F930E94EE2A8DB73A
:101760009EB708960FB6F8949EBF0FBE8DBF089522
:1017700040E050E0BA0189ED96E0E5CF40912A04BF
:1017800050912B0460912C0470912D0482EF96E00F
:10179000DACFCF93DF93282F86FB442740F9E42F3D
:1017A000F0E0DB016D917D918D919C91EE0FFF1F1B
:1017B00025FF1AC0EA5DF94FC591D49193DF9F933D
:1017C0008F937F936F93DF93CF9386E293E09F9302
:1017D0008F930E94EE2AADB7BEB718960FB6F89455
:1017E000BEBF0FBEADBF08C0EE5DF94F259134916D
:1017F000AB01BC01C901A7DFDF91CF9108956EE174
:1018000074E0892FC6CF6AE174E0892FC2CFCF93ED
:10181000C22F99DFCC2311F08C2FA8DACF91089535
:10182000CF9320912E0430912F04F9013C96E4913E
:10183000F9013D9665917491F9013A96C49180E061
:1018400090E00E9492302AE037ED43E25CE30E9490
:10185000AD31AB01BC012C2F89E992E0D8DFCF91EB
:101860000895CF93C42F28EE33E040E050E00E946B
:10187000DB32DA01C90140E06C2F23DCCF910895FF
:10188000492F40746091F1057091F2058091F30544
:101890009091F405E6CFCF93C82F6091C904709161
:1018A000CA048091CB049091CC040E9461306150B5
:1018B00071096F30774280F4C7FD02C086E156DAC5
:1018C0004091C9045091CA046091CB047091CC043A
:1018D00021E08DEC96E09BDFCF9108957F936F938D
:1018E0009F938F938FE992E09F938F9386E293E08B
:1018F0009F938F930E94EE2A8DB79EB708960FB6DE
:10190000F8949EBF0FBE8DBF08950F931F93CF9382
:10191000DF9305E116E080E090E0F80161917191BC
:101920008F01EC012196CE01D9DFCE012897A9F7CE
:10193000DF91CF911F910F9108951F920F920FB6D3
:101940000F9211242F938F939F93EF93FF93909176
:10195000C6008091DC068F5F8F772091DD068217AD
:1019600041F0E091DC06F0E0E65AF94F9083809375
:10197000DC06FF91EF919F918F912F910F900FBEF9
:101980000F901F9018951F920F920FB60F9211246F
:101990008F939F93EF93FF939091DB068091DA06EC
:1019A000981779F0E091DB06F0E0EA5AF94F808170
:1019B0008093C6008091DB068F5F83708093DB0687
:1019C00005C08091C1008F7D8093C100FF91EF9190
:1019D0009F918F910F900FBE0F901F901895EF92CF
:1019E000FF920F931F93CF93DF938C01040F151F6A
:1019F000EC017B01E81AF90AC017D10739F0C701D9
:101A00008C0F9D1F0E946F338993F6CFCDB7DEB741
:101A1000E6E00C946033A8E1B0E0E1E1FDE00C9475
:101A20004733182F88E1189FB001112460587D4F6B
:101A300048E150E0CE010196D2DFE12FF0E0EE0F59
:101A4000FF1FEA57FC4F6081718180E090E00E94A7
:101A5000923029813A814B815C810E94AD312D8188
:101A60003E814F8158850E942C2F9F938F937F93A7
:101A70006F93CE0109969F938F9386E293E09F9395
:101A80008F930E94DC2A0FB6F894DEBF0FBECDBF45
:101A90006896E3E00C946333982F262F30E0F90129
:101AA000EE57FC4F87FD09C0862F41E04083F901C6
:101AB000E258FC4F90749083AECF1082089563E09B
:101AC000892FEACF62E0892FE7CF61E0892FE4CF49
:101AD00060E0892FE1CFCF936AE086E011D9C0E0C2
:101AE0008C2F99DFBBDBCF5FC430D1F7CF91089546
:101AF000A0E0B0E0EEE7FDE00C944333EB017C01A5
:101B00008B01040F151FC017D10771F0F701D19099
:101B10007F01CE010E946F338D1521F06D2DCE0116
:101B20000E9477332196EFCFCDB7DEB7E7E00C9474
:101B30005F33EF92FF921F93CF93DF93182F7B01B8
:101B4000C0E0D3E0CE010E946F338F3F71F081116E
:101B500003C0112351F01150111102C0F701099572
:101B60002196C038F3E0DF0769F7DF91CF911F912D
:101B7000FF90EF9008950F931F93CF93DF93EC01A5
:101B80008B010E94B328DC01CB01800F911FA11DA6
:101B9000B11D88839983AA83BB83DF91CF911F9165
:101BA0000F9108959B01FC014081518162817381F5
:101BB000420F531F611D711D4083518362837383E4
:101BC0000895E0912E04F0912F043496659175915B
:101BD000859194910895CF92DF92EF92FF926B01DD
:101BE0007C01EFDFA70196010E94AD31FF90EF90DD
:101BF000DF90CF900895CF92DF92EF92FF92CF9334
:101C0000DF93E9DF6B017C0120E03CE34CE156E42B
:101C10000E94F22FC0912E04D0912F04FE011816BD
:101C20003CF039962491B701A6018DEC96E024C0D2
:101C300070966591749180E090E00E9492309B01D3
:101C4000AC01C701B6010E94F92F6B017C010E9413
:101C500061306A30710534F06436710534F08DEC12
:101C600096E005C089ED96E002C083ED96E0FE01A6
:101C70003F962491B701A601CADDDF91CF91FF9075
:101C8000EF90DF90CF90089596FB882780F980939E
:101C9000BC038091AE03882369F097FD0BC060916F
:101CA000DA057091DB058091DC059091DD050E94DD
:101CB0009430A1CF08956091D3057091D40580919F
:101CC000D5059091D60597CF60913F06709140065B
:101CD00080914106909142068ECFE0912E04F091C2
:101CE0002F0465917591859194910895A0E0B0E0DD
:101CF000ECE7FEE00C944233EC01D62EFE01059198
:101D000014910115110509F467C0FE013296849102
:101D100081112CD8FE01339684913196E590F49090
:101D2000893691F030F4813609F43CC08836C1F030
:101D300004C08337E9F0863719F150E2C52E60E020
:101D400070E080E89FE337C0F70160817181072E62
:101D5000000C880B990B0E94943040E2C42E32C0D4
:101D6000E0912E04F0912F043996C4902ADF23C00D
:101D7000E0912E04F0912F043896C490AEDF1BC082
:101D800020DF2091B203211114C0E0912E04F091C4
:101D90002F047296C49020E030E040E752E40E94A5
:101DA000AD3109C031E4C32E6AE077ED83E29CE3F4
:101DB00002C028E1C22EF701208131814281538186
:101DC0000E94AD312C2DAB01BC01C80120DD46DAEB
:101DD0002796DA94D11092CFCDB7DEB7E8E00C9415
:101DE0005E3367E084E692E081CFCF93DF93D82F14
:101DF000C92F82D888E00E94B6066091F1057091E3
:101E0000F2058091F3059091F40540E02ADD6AE047
:101E100080E491E06BDFC6FF05C06C2F8AE08D0F78
:101E20000E94800683E00E94B6066AE174E080E0CA
:101E3000B0DC14DA84E00E94B6066EE174E080E063
:101E4000A8DCDF91CF910895CF92DF92EF92FF92BD
:101E5000FC01C080D180E280F3803FDFA7019601C2
:101E60000E94AD31FF90EF90DF90CF9008951F93C7
:101E7000CF93DF93EC01CB01142FE6DF112341F068
:101E800024EE38E34EE85EE30E94AD3128E106C05F
:101E9000E0912E04F0912F0438962491AB01BC01FF
:101EA000CE01B5DCDF91CF911F910895462FBC0183
:101EB00082EF96E0DCCF692F60748FEC95E0F6CF6F
:101EC000692F607487EC95E0F1CF2FE632E143E8AB
:101ED0005AE30C94AD310F931F93CF93DF9300918E
:101EE000CD041091CE048AEF809FB001819F700DC8
:101EF0001124072E000C880B990B0E9494306BDE86
:101F0000C0912E04D0912F04083211054CF0DDDF72
:101F1000AB01BC01FE013F96249189ED96E007C01C
:101F2000FE0139962491AB01BC018DEC96E06FDC8B
:101F3000DF91CF911F910F910895CF93DF9361119E
:101F400003C0CFEDD6E002C0C3EDD6E0BC0180E017
:101F500090E00E949230B9DFAB01BC012DE0CE01D0
:101F600056DCDF91CF9108950F931F93292F95FF92
:101F700009C06091D3057091D4058091D5059091E9
:101F8000D60519C060912204709123048091240425
:101F90009091250426FF0CC000911604109117049F
:101FA0002091180430911904601B710B820B930B64
:101FB0000E9494308ADF1FDE1F910F910895CF9306
:101FC000DF93EC010E94B32828813981CB01821B69
:101FD000930BDF91CF910895BC0186E293E00C94BE
:101FE000C22A1F93CF93DF93182FC92F87FD0FC0ED
:101FF00096FF04C0D0E08EEC92E003C0D1E08DEDFE
:1020000092E0EADF812F9C2F0E947C0701C0D0E084
:102010008091430690914406A0914506B0914606F2
:10202000BC01CD01905820E030E040E151E40E9435
:10203000AD310E9461309B014091970342FD06C083
:102040004CE3469F9001479F300D1124C5FF06C009
:10205000C9016AE070E00E94C8329B01C4FF06C05B
:1020600037FF02C02F5F3F4F3595279516FF08C0F9
:1020700037FF02C02D5F3F4F359527953595279542
:10208000A901435D5F4F57FF02C04F5F5F4FCA0119
:102090009595879569E070E00E94C83265302CF410
:1020A00067FD06C04FEC481B05C04EE764E002C068
:1020B00040E660E08D2F0E94C706DF91CF911F910F
:1020C0000895CF93DF9387FD03C083EC92E084DF14
:1020D000CBE5D3E0499159916991799182EF96E0EE
:1020E00032DB83E0C736D807A9F7B8D8C5E5D3E017
:1020F0006991799189EE96E00E947E0783E0CB3565
:10210000D807B1F7DF91CF910895FF920F931F93F6
:10211000CF93DF93F92E8095D82FDD1FDD27DD1FAC
:10212000092F0072DD2339F096FD05C00023B1F1BF
:1021300080E092E051DF83EC0E94B6062091D70543
:102140003091D80548E1429FC001439F900D112472
:102150000C9668E671E00E94C83264507109C62F7F
:1021600077FF02C0C8E1C60F011102C019E001C02B
:102170001AE0EC2FF0E0E552FE4F84910E94B60683
:10218000CF5FC83108F0C0E0115099F787E80E948E
:10219000B606DD2371F0F6FC04C00BC083EF91E0BE
:1021A000C9CF011103C084EC91E002C080ED91E041
:1021B00013DFCDB7DEB7E5E00C9461331F93CF9307
:1021C000DF9340911E0450911F0460912004709190
:1021D0002104452B462B472B69F440911A0450915A
:1021E0001B0460911C0470911D04452B462B472B4A
:1021F00009F43DC094FD02C01FEF01C010E2EC01E4
:102200008091AC038823D9F08091B7038A3048F0DD
:1022100088EB91E0E1DE812F0E94B60681EB91E030
:102220000CC08091B8038A3050F088EB91E0D4DE86
:10223000812F0E94B60688EA91E0CEDE18C0C095D4
:10224000CC1FCC27CC1F19F083E00E94B6066AE1B0
:1022500074E08D2F9EDA812F0E94B606CC2319F0F0
:1022600084E00E94B6066EE174E08D2F92DADF9171
:10227000CF911F910895EF92FF920F931F93CF93E9
:10228000DF938091A603882309F4E5C01092A6038A
:102290008FEC95E0D9DD0E9461309B0160910906C9
:1022A00070910A0680910B0690910C064091B10343
:1022B000442351F0E1E050E04091E205423008F063
:1022C000E0E0CE2FD52F02C0C0E0D0E0F090340483
:1022D000F1100AC04091380450E02417350724F467
:1022E0004091AB0340FDC26040913704442329F084
:1022F00050E0421753070CF4C46000910E06109191
:102300000406E0903904EE2081F02AE037ED43E244
:102310005CE30E94AD310E9461306115710529F0C6
:102320008E2D90E068177907E4F020913F04222376
:10233000C9F034E6039FC0011124312F17FF02C0FA
:1023400031E0310F3595830F911D37FD9A95612F3F
:10235000110F770B0E94C832822F90E0681779071F
:102360000CF4C86080913E0480FD0BC08091400455
:1023700090E02091FE033091FF032817390708F4FD
:10238000C06160914306709144068091450690912A
:10239000460621E0F21218C0109138041123A1F072
:1023A00020E030E040E752E40E94AD319F770E9488
:1023B0006130CB016AE070E00E94C832812F90E06A
:1023C000861797070CF4C0626091050670910606A7
:1023D000809107069091080610917204112391F0E4
:1023E0002AE037ED43E25CE30E94AD310E946130A8
:1023F0006115710539F0812F90E06817790714F4A1
:10240000C06405C0209719F41092190324C090915C
:10241000190381E09111890F8093190380911903A9
:102420004FEF480F21E030E002C0220F331F4A95E2
:10243000E2F78C3018F081E021E030E0A9014C2374
:102440005D23452B21F48F5F220F331FF2CF809342
:1024500019038917C9F2E0911903EE2359F0F0E04E
:10246000EE0FFF1FEF5BF94F85919491B5DD81E28F
:102470000E94B606CDB7DEB7E6E00C9460338EBDA1
:102480000DB407FEFDCF8EB56EBD0DB407FEFDCFBA
:102490008EB508958EBD0DB407FEFDCF8EB58FEFBE
:1024A0008EBD0DB407FEFDCF8EB508958EBD0DB463
:1024B00007FEFDCF8EB508958AEA90E00C940829B6
:1024C0000E94C72E811101C0F7CF0895CF93DF93EB
:1024D000EC019A01AB01688179818A819B810E941C
:1024E0002C2F688379838A839B83DF91CF91089512
:1024F000CF92DF92EF92FF92CF93DF93EC016A01CC
:102500007B019A01AB01688179818A819B810E945C
:10251000F22F87FF04C0C882D982EA82FB82DF9152
:10252000CF91FF90EF90DF90CF900895CF93DF93FE
:10253000EC01CB01BA010E94943025E93FEB46ED56
:1025400053E30E94AD31688379838A839B83DF9153
:10255000CF9108958091A103882329F090919F0342
:1025600081E0911180E0089595FB222720F994FDE8
:1025700002C090E001C092E0922B86FD02C080E094
:1025800001C084E0892B08951F93CF93DF93182F08
:10259000EBDF8C5FC82FD0E017FD07C0BE016F5F77
:1025A0007F4F84EF95E00E947E07CC0FDD1FCB5E4E
:1025B000D94F688179818EEE96E00E947E07DF9187
:1025C000CF911F9108951F93CF93DF93182FC92F99
:1025D000CBDFD4E0D80F17FD08C06D2F70E06F5F20
:1025E0007F4F87EA92E00E947E076C2F60748D2FE8
:1025F0000E940307D82FC0E0CD1302C081E801C0BC
:1026000080E80E94B606CF5FC530B1F7DF91CF9169
:102610001F9108951F93CF93DF93182FC92FA4DF25
:10262000D4E0D80F17FD08C06D2F70E06F5F7F4FAB
:1026300084EF95E00E947E076C2F60748D2F0E94BE
:10264000030766EB76E075DADF91CF911F9108956D
:10265000892F807495FF04C0811105C08EE1089513
:10266000811103C0089584E608958AE00895CF9209
:10267000DF92EF92FF92CF93DF93D82FC92FE8DF3D
:1026800080930901C7FD43C0C4FF1EC081E0809351
:10269000B203C0904306D0904406E0904506F09007
:1026A0004606C701B6019F770E9461306A30710506
:1026B00044F5D6FD03C086E292E002C08FE192E0CD
:1026C00028E1B701A6011BC01092B203E0912E04CD
:1026D000F0912F047296C49120E030E040E752E47C
:1026E000609143067091440680914506909146069C
:1026F0000E94AD31AB01BC012C2F88E192E087D85C
:1027000006C064367105D4F288E192E0D9CFDF913A
:10271000CF91FF90EF90DF90CF900895A2E0B0E0CE
:10272000E4E9F3E10C9448339091BE05682F70E022
:10273000660F771F80E8989F600D711D112442E09D
:1027400050E0CE0101964BD989819A812296E2E030
:102750000C9464332091C5053091C605260F311DB8
:102760003093C8032093C7038093C6038091040469
:102770008093C403089597FF03C088599E4F08951E
:10278000893621E0920714F088569140089581E03F
:102790008093A00388E0EEEAF5E0DF011D928A95C0
:1027A000E9F780E0BBDF9093980380939703089547
:1027B00024E0880F991F2A95E1F78C549F4F68E613
:1027C00071E00E94C83281E0860F0895CF93F0DF58
:1027D0008F7009F480E1880FCEEFC80F80E98C0F6D
:1027E0000E94B60681E98C0F0E94B606CF9108952B
:1027F000CF938091AE03882371F0C92F8091D905C2
:1028000090E0E4DFC6FF07C06091D90570E089EE73
:1028100096E00E947E07CF9108951F93CF93DF9398
:10282000C0912506D0912606C83E83E0D8073CF427
:10283000C9318CEFD8072CF4C9E1DCEF02C0C7EE38
:10284000D3E0E0912E04F0912F043996149160E0CA
:1028500070E085EE96E00E947E070E942C0960E001
:1028600070E0CB01B8D9AB01BC01212F8DEC96E013
:102870000E94070C0E942E09809133069091340625
:102880007ADF2091D7053091D805821B930B9EDF0C
:102890008EE092E0A1DBBE01DD0F880B990B0E9458
:1028A000943099D9AB01BC01212F8DEC96E00E94A8
:1028B000070CDF91CF911F9108958091E0059091D1
:1028C000E105C29664E670E00E94B4322091D7051B
:1028D0003091D805CB01821B930B4DDF9C01245B0B
:1028E00031093093DF052093DE0570DF6091DE054E
:1028F0007091DF058FEB91E00C947E074F925F9211
:102900006F927F92BF92CF92DF92EF92FF920F93DE
:102910001F93CF93DF938C01EB01B42EFC01C08099
:10292000D180E280F380C701B6019F7725E33AEFBB
:102930004EE85CE30E94AD310E94F62F2B013C0172
:10294000288139814A815B81C701B6010E946A0BE7
:102950006B017C0160931A0370931B0380931C032B
:1029600090931D032C813D814E815F81F80164812C
:102970007581868197810E946A0BA30192010E9452
:10298000AD3160931E0370931F03809320039093D7
:1029900021039B01AC010E94AD312B013C01A70139
:1029A0009601C701B6010E94AD319B01AC01C30184
:1029B000B2010E942C2F0E9414326B017C01BB20BB
:1029C00099F1F80180859185A285B385488559855F
:1029D0006A857B858C019D01041B150B260B370B2B
:1029E000C901B80137FF07C0909580957095619532
:1029F0007F4F8F4F9F4F0E94943067DA9B01AC014D
:102A00000E94AD312B013C01A7019601C701B6011F
:102A10000E94AD319B01AC01C301B2010E942C2F79
:102A20000E9414326B017C01C701B601DF91CF9186
:102A30001F910F91FF90EF90DF90CF90BF907F900C
:102A40006F905F904F900895CF93DF9380911E0316
:102A500090911F03A0912003B09121039C01AD012F
:102A6000505860911A0370911B0380911C03909140
:102A70001D030E949F2F2091D7053091D805C6EAEB
:102A8000DFEFC21BD30B20EE3EE245E652E40E948C
:102A9000AD310E946130CE01860F971F6CDEDF9151
:102AA000CF9108958F929F92AF92BF92FF920F9312
:102AB0001F93CF93DF93F82EC0E0D0E08E01055D29
:102AC0001C4FF8018089882389F0F7FC03C080E25D
:102AD0000E94A20641E06AE174E0C8010FDF4B01E9
:102AE0005C01B2DF73DEC501B40185D86196C232E4
:102AF000D10521F7DF91CF911F910F91FF90BF90EA
:102B0000AF909F908F9008958F929F92AF92BF92B7
:102B1000CF92DF92EF92FF920F931F93CF938C018E
:102B20004A015B01C22FFC01C080D180E280F380AA
:102B300020E030E0A901C701B6010E94F22F8823EE
:102B400011F0C23030F4F80180829182A282B38207
:102B50001DC0A7019601C501B4010E942B2F4B0196
:102B60005C016C2F70E080E090E00E9494309B014B
:102B7000AC01C501B4010E94F92FA70196010E9482
:102B80002C2FF8016083718382839383CF911F91EF
:102B90000F91FF90EF90DF90CF90BF90AF909F90FC
:102BA0008F900895CF93DF93C92F52DDD82F609176
:102BB00011067091120680E090E00E949230AB0105
:102BC000BC012D2F85E096E09FDF81E0C7FD12C09C
:102BD0008093BB03C07160910506709106068091D9
:102BE0000706909108060E946630DC01CB016C2F2D
:102BF000A4D907C090917204911101C080E0809324
:102C0000BB03DF91CF910895CF93DF93C92F20DDD0
:102C1000D82F609113067091140680E090E00E9416
:102C20009230AB01BC012D2F89E096E06DDFC7FD2E
:102C30000FC0C0716091090670910A0680910B0661
:102C400090910C060E946630DC01CB016C2F75D987
:102C5000DF91CF910895CF93DF93C92FF9DCD82F5F
:102C600060910F0670911006072E000C880B990BCF
:102C70000E949430AB01BC012D2F8FE693E044DF1E
:102C8000C7FD1BC0C4FD03C0CFEDD6E002C0C3ED3D
:102C9000D6E02AE037ED43E25CE360916F03709188
:102CA000700380917103909172030E94AD31AB016A
:102CB000BC012EE0CE010E94070CDF91CF91089558
:102CC0000F931F93CF93DF93092F80E090E053DDA4
:102CD000EC014091CB055091CC056091CD057091F0
:102CE000CE0524E687E496E00FDF06FB112710F9F6
:102CF000612F8BEC95E0DAD80E942E098091D705E0
:102D00009091D805C81BD90B05FD03C080E090E069
:102D100002C084EB90E08C0F9D1F58DD412F67E4CB
:102D200076E082E192E0A3D8DF91CF911F910F91DD
:102D30000895CF93DF93C92F8BDCD82F6091FE03CA
:102D40007091FF0380E090E00E949230AB01BC01E3
:102D50002D2F8FEB94E0D8DE6091BF047091C004FA
:102D60008091C1049091C2040E94613089EE96E086
:102D70000E947E0780913E0480FD03C0C4FD0E9436
:102D8000B908DF91CF910895CF92DF92EF92FF9231
:102D900060910F0670911006072E000C880B990B9E
:102DA0000E9494306B017C0187EC95E04DD89B012B
:102DB000AC01C701B6010E94F92F20E030E040E2EB
:102DC00051E40E94AD31AB01BC0124E689EC94E0F2
:102DD0009BDEFF90EF90DF90CF900895A0E0B0E0F1
:102DE000E4EFF6E10C9442332091A703222309F487
:102DF000E9C0292FC82F6091C7057091C80580913F
:102E0000C9059091CA0526FF05C0BEDF8C2F0E9420
:102E10004B0CD8C020913404211186C020E030E052
:102E2000A9010E94F22F882309F4CCC0ADDF809164
:102E3000AA038823D1F01092E8051092E9051092B8
:102E4000EA051092EB0580913F0690914006A09113
:102E50004106B09142068093C3049093C404A093AA
:102E6000C504B093C6041092AA032DEC3CEC4CE4CC
:102E70005DEB6091E4057091E5058091E605909128
:102E8000E7050E94F22F87FF3EC02091C3043091D6
:102E9000C4044091C5045091C60460913F067091EE
:102EA000400680914106909142060E942B2F20E01F
:102EB00030E0A9010E94AD310E94EB0D6B017C0155
:102EC0000E946130CB016031774224F41816190654
:102ED00044F078C0C12C8CE3D82E8CE1E82E86E437
:102EE000F82EC7FD03C08EEE0E94B606E0912E04B8
:102EF000F0912F0439962491B701A6018DEC96E04C
:102F00000E94070C5FC0809108049091090497FF0C
:102F100059C08091AC03882319F086E992E002C081
:102F200085E992E059D84EC0D0910E060D2F10E0E1
:102F300080910306082E000C990B08171907B9F1A8
:102F40006091F1057091F2058091F3059091F4057F
:102F50000E9492306B017C016D2F70E080E090E068
:102F60000E9492309B01AC01C701B6010E94AD31B5
:102F70006B017C0140910406042E000C550B401B94
:102F8000510BBA01550F880B990B0E9494309B018D
:102F9000AC01C701B6010E94F92F0E94650F0E9483
:102FA00066307093020660930106D0930306C7FD56
:102FB00003C087E10E94B606809101069091020647
:102FC0000E94B608CDB7DEB7E8E00C945E332AE085
:102FD0009BCD4F925F926F927F928F929F92AF9212
:102FE000BF92CF92DF92EF92FF921F93CF93DF9326
:102FF00086E294E00E94DF0FEC0160E070E086E280
:1030000094E00E94BB0DBE0180E090E00E949230EF
:103010000E94650F2B013C0160910F067091100614
:10302000072E000C880B990B0E9494304B015C0119
:10303000609113067091140680E090E00E94923037
:10304000A50194010E94AD312CEA35EC47E257E32B
:103050000E94AD31AB01BC018AE294E0B8DF10916F
:103060000901C090E405D090E505E090E605F090F8
:10307000E705C701B6010E94EB0DAB01BC01212F92
:1030800083E496E041DD20910E0680910406082E2F
:10309000000C990B422F50E08417950714F42093ED
:1030A000040621E63BE046E35BE3C501B4010E9470
:1030B000AD31A30192010E94AD31AB01BC018BE3A4
:1030C00096E004DA809100049091010420913E047E
:1030D00020FD44C04091780450917904E0917A0435
:1030E000F0917B04E417F5073CF4342F252FAF0152
:1030F000E32FF22F11E001C010E0742F652F481765
:10310000590714F4782F692F272F362FE217F3076A
:103110000CF49F01241B350BA4E6B0E00E941F3382
:10312000E41BF50B9F0140E050E00E94FD32253684
:1031300031052CF437FF05C020E030E002C024E662
:1031400030E0112331F084E690E0AC01421B530BD8
:103150009A013093FF032093FE0304C09093FF0372
:103160008093FE0380913404811104C08091AB03ED
:1031700080FD05C08091A703882309F470C0BE01BB
:1031800081EF95E00E94D20D8091AE03882389F0F3
:103190002091C7053091C8054091C9055091CA05D5
:1031A000C301B2010E94AD31AB01BC018FE396E0D7
:1031B0008DD96091DA057091DB058091DC059091E5
:1031C000DD050E949430AB01BC0185EA95E090D901
:1031D0004091CF055091D0056091D1057091D205F5
:1031E00081EA95E085D94091C7055091C805609165
:1031F000C9057091CA058DE995E07AD94091D3054A
:103200005091D4056091D5057091D60589E995E076
:103210006FD94091CB055091CC056091CD0570914F
:10322000CE0585E995E064D940912A0450912B049C
:1032300060912C0470912D0485E895E059D9B50171
:10324000A40181E995E054D9B701A6018DE895E084
:103250004FD9B701A601705889E895E049D9DF91A7
:10326000CF911F91FF90EF90DF90CF90BF90AF90E4
:103270009F908F907F906F905F904F9008950E94E5
:10328000B3286093BF057093C0058093C1059093E8
:10329000C2058091C5059091C6059093C4058093A1
:1032A000C305E0EAF3E081E0808382830895CF9351
:1032B00090919003992309F447C0E0917504F0E0E0
:1032C000EE0FFF1FE35EF94F20813181CFB78823D6
:1032D00009F0F89480917C048130D9F018F08230A4
:1032E00011F131C0E0918E03F0918F0390818091B4
:1032F0009003892B8083C9010E940829E0918E03E5
:10330000F0918F0390818091900380958923808331
:103310001AC090919003E0918E03F0918F032D3DA0
:1033200035406CF009C090919003E0918E03F091CC
:103330008F032C3D35401CF48081982B03C0808185
:10334000909598239083CFBFCF91089566E970E060
:1033500080E090E00C94E4286FE070E080E090E082
:103360000C94E42865E082E00E94800684E093E00B
:103370000E94EC0F0E94B3284AE050E086E293E0FE
:103380000E94792A8091B903882359F061E081E095
:103390000E94800660914A0470E08FEE92E00E94E5
:1033A0007E070E94CE06D2CFA0E0B0E0EAEDF9E1C0
:1033B0000C943A3302E615E020E2F22ECAE0D0E0A7
:1033C00030E1E32E0E94C72E882309F4F7C10E9442
:1033D000D62E909152059230A1F028F4992351F005
:1033E000913051F005C09430D1F080F0953011F15A
:1033F0009F5FDFC191E0D0C18D3409F0D9C192E067
:10340000D8C18E3309F0D4C193E0D3C1813808F01C
:10341000CFC1809351058093500594E0CAC1809339
:1034200053059091500589278093500510924F05C0
:1034300095E0BFC120915005282720935005E091C9
:103440004F0530915105E313AAC12111A5C1109276
:10345000540515DFE09153058E2F90E0FC01E456F2
:10346000F109E431F10508F092C1EC5CFF4F0C94D6
:103470001933E091540581E08E0F80935405F0E0FC
:10348000E153FB4F80818093070480915605909112
:103490005705A0915805B09159058E7F70C1E091F4
:1034A0005405F0E0EB52FB4F408151816281738102
:1034B00040935E0550935F056093600570936105CE
:1034C0008091620590916305A0916405B0916505B6
:1034D00084239523A623B72321E0892B8A2B8B2BCA
:1034E00009F420E02093A70352C1E0915405F0E0D5
:1034F000E153FB4FA5E1B6E08E2D01900D928A9528
:10350000E1F745C18091540590E0FC01E153FB4F88
:1035100020812093E20521812093E305FC01EF52F5
:10352000FB4F40815181628173818AE194E00E9466
:103530009612E0915405F0E0EB52FB4F408151812F
:10354000628173818EE194E00E949612C0905405CE
:10355000D12CF601E752FB4F80819181A0E0B0E0D1
:103560008093220490932304A0932404B093250411
:10357000F601E552FB4F6081718180E090E00E948E
:1035800092306093C7057093C8058093C9059093E6
:10359000CA05F601E352FB4F808191819093E105CA
:1035A0008093E005F4C08091540590E0FC01E15364
:1035B000FB4F4081518160E070E04093DA05509309
:1035C000DB056093DC057093DD05FC01EF52FB4FDA
:1035D00080818093D905DBC02091540530E0F9014A
:1035E000ED52FB4F808191819093D8058093D70550
:1035F000F901E153FB4F80819181BE010E94B432F9
:1036000070930B0460930A04F901EF52FB4F808121
:103610009181BE010E94B432709309046093080442
:10362000B6C0C0905405D12CF601E153FB4F608128
:103630007181828193810E9492306093D30570934F
:10364000D4058093D5059093D605F601ED52FB4F36
:103650006081718180E090E00E9492306093E40587
:103660007093E5058093E6059093E70590C020915F
:103670003004E091540524FD11C08E2F90E0DC0150
:10368000A153BB4F4D915C91509314064093130688
:10369000DC01A053BB4F8C9180930E0626FD0AC01F
:1036A000AE2FB0E0AC52BB4F8D919C919093100621
:1036B00080930F06F0E0EE52FB4F8081809303046D
:1036C00066C08091560590915705A0915805B0911C
:1036D00059059D7F54C08091560590915705A09142
:1036E0005805B09159059B7F4AC040915105F8019A
:1036F0008F2D11928A95E9F7812C912C5401839496
:103700004423A1F1E091540581E08E0F809354058C
:10371000F0E0E153FB4F608128EF36E0062E000C0D
:10372000770BF901849190E06817790799F4C90142
:103730000296FC01A591B4914D905D906D907C90A6
:103740001397482859286A287B284D925D926D92DC
:103750007C9213972C5F3F4FF7E028313F0709F722
:10376000880C991CAA1CBB1C4150CACF80915605DD
:1037700090915705A0915805B0915905977F809376
:10378000560590935705A0935805B09359050E948C
:10379000AA12882369F012C0843251F40AC021E0D1
:1037A0002E0F20934F05F0E0E153FB4F808301C0C3
:1037B00090E0909352050E94601204CECDB7DEB720
:1037C000E0E10C945633CF93C82F84E20E94F32E8D
:1037D0008DE40E94F32E8CE30E94F32E80E00E9481
:1037E000F32E8C2F0E94F32E8C2F0E94F32ECF915C
:1037F00008958FEF91E0A0E0B0E08093560590939C
:103800005705A0935805B0935905EAE5F5E0808186
:103810009181A281B3819170AA27BB278083918374
:10382000A283B38308950F931F938091C8048111DD
:103830000BC00E94C42E60E072EC81E090E00E9418
:10384000852E81E08093C8049091C70481E0892788
:103850008093C7048111A5C0CCDF80915A05909157
:103860005B05A0915C05B0915D05892B8A2B8B2BA4
:1038700081F48091560590915705A0915805B0911B
:10388000590580935A0590935B05A0935C05B0930E
:103890005D0540915A0550915B0560915C05709102
:1038A0005D0588279927DC01841B950BA60BB70BB8
:1038B00084239523A623B7238C019D0100951095A1
:1038C00020953095402351236223732340935A055A
:1038D00050935B0560935C0570935D0580349105A2
:1038E000A105B10509F44FC020F584309105A1056B
:1038F000B10509F454C068F481309105A105B10502
:1039000009F44BC00297A105B10509F04AC085E64C
:1039100047C080319105A105B10589F1803291053B
:10392000A105B10571F10897A105B105D1F589E6A9
:1039300037C0811522E09207A105B10541F160F47D
:1039400080389105A105B10501F181159140A105CE
:10395000B10539F58EE624C0811528E09207A1054E
:10396000B105B9F0811520E19207A105B10599F0E3
:1039700081159440A105B105A1F480E711C08AE644
:103980000FC08BE60DC08CE60BC08DE609C08FE63C
:1039900007C087E705C08CED03C084E601C086E65A
:1039A00012DF1F910F91089584E20E948E1396FFFB
:1039B00008C08091D90590E08C549F4F0E94BB13A2
:1039C00004C08091D7059091D805880F991F8D96D6
:1039D0006AE570E00E94C83277FF03C0685F7F4FDE
:1039E000FBCF67707727FB01E951FD4F8491089564
:1039F00087FD03C0D9DF0E94B6066091D70570919C
:103A0000D80589EE96E00E947E0785E00C94B60604
:103A1000FF920F931F93CF93DF93F82ED92F96FD2C
:103A20000CC06D2F81E08F0D0E948006809197035E
:103A300081FD1CC00E94670919C0C5E082EB0E948D
:103A4000B6061DE0115019F00E942C09FBCFC330BF
:103A500011F083EB01C085EC0E94B6060E942E098E
:103A6000C150F9F2C33051F786ECE9CFD4FF48C01A
:103A700081E090E09093CE048093CD04F6FC07C0E3
:103A800093DF482F62E085E00E94C70639C080912D
:103A9000B605811104C08091B7058823E1F08091BB
:103AA000BA059091BB059093BD058093BC058091AC
:103AB000B8059091B9059093BB058093BA058091A4
:103AC000B6059091B7059093B9058093B80510920B
:103AD000B6051092B70500E010E0C2E0F801EA5424
:103AE000FA4F87816C2F681B868144E28B5F0E94AE
:103AF000C706025011090A3F4FEF140779F7C0CFEC
:103B0000F7FC08C062E085E00E94910689E991E037
:103B10000E94EC0FD5FFB2C08091A703882309F45F
:103B2000ADC08091340481117BC06091DA05709141
:103B3000DB058091DC059091DD050E9494309B01AE
:103B4000AC0160E070E0CB010E949F2F21EE3EE2CD
:103B500045EE52E40E94AD310E9461306A50710915
:103B60002DE2269FC001279F900D11246AE070E08E
:103B70000E94C832CB018D9697FD01969595879549
:103B800069E070E00E94C832D62F653058F4CFEC5F
:103B9000C81B4C2F8CE00E94C7064C2F6D2F81E074
:103BA0000E94C7068091D90590E020910E013091C6
:103BB0000F01821B930B0E94BB13853B910534F0D0
:103BC00028E631E0A901481B590BCA019C01245B7E
:103BD000310948E4429FC001439F900D11246AE0DF
:103BE00070E00E94C832CB01849666E070E00E94CB
:103BF000C83267FD07C06D3044F4DFEBD80FC1E079
:103C0000C60F05C0C1E0DCE302C0CCE0DEE34D2F0F
:103C100064E08C2F0E94C7064D2F60E08C2F2CC0D3
:103C20006091D3057091D4058091D5059091D6050A
:103C30000E94EB0D20E030E040EA50E40E942C2F7F
:103C40002DEC3CEC4CE850E40E94AD310E94613018
:103C5000862F9FEF960F9B3238F469E00E94A732BF
:103C60004FEC491B682F07C06C321CF064E04EE239
:103C700002C060E04FEC86E00E94C706CDB7DEB719
:103C8000E5E00C946133ABE0B0E0E9E4FEE10C94D4
:103C900038330E94B3286B017C010E94E9058091B2
:103CA00034041091A703811114C0112301F18091F4
:103CB000AB0380FF1CC06091C7057091C80580915F
:103CC000C9059091CA050E946130623071053CF4CB
:103CD0000EC011110CC08091A803882341F0C0923E
:103CE0002706D0922806E0922906F0922A06109321
:103CF000A80380917704853018F084E080937704DE
:103D00008FEB95E00E94DF0F853C994080F1109287
:103D1000C7051092C8051092C9051092CA0562E045
:103D200085E00E9480066091C5057091C60580916E
:103D3000C3059091C405681B790B86E891E00E9449
:103D40007E074091BE035091BF036091C003709104
:103D5000C103411551056105710531F02AE030E0DC
:103D600086E293E00E946C2A83E094E469C080912B
:103D7000310480FF68C01091A703111123C0809106
:103D8000270690912806A0912906B0912A06892B32
:103D90008A2B8B2BB9F060913F0670914006809181
:103DA0004106909142060E9461306630710554F0E0
:103DB00081E08093B4030E942B078091BE0580931D
:103DC0007D033CC08091B4038823E9F180917D0399
:103DD0009091BE05891721F08093BE051092B4031F
:103DE00082E00E944007092E000CAA0BBB0BB7FF14
:103DF00007C0B095A095909581959F4FAF4FBF4F4D
:103E00008D329140A105B1050CF0A9C283E00E945A
:103E10004007092E000CAA0BBB0BB7FF07C0B095DB
:103E2000A095909581959F4FAF4FBF4F8D32914098
:103E3000A105B1050CF093C2111191C281E091E08E
:103E40000E94F50E8FC280917704882321F0909113
:103E5000BE05981740F500E313E0F801B490C801DF
:103E60000196FC01C590D490C114D10409F47AC222
:103E70008B2D8F770E948E137C010E947C07F7FCAC
:103E80000AC0E7FC0AC0F80133968491882329F020
:103E90000E94B60602C0B7FE03C0C701F60109952D
:103EA0000C5F1F4FDACF8091A70381114FC21D8293
:103EB0001E821F8218860E942B074091AD05A42EFA
:103EC000B12CF5E04F9FA0011124FA01EC5FFB4FEC
:103ED000859194919093780380937703FA01EA5F38
:103EE000FB4FF490C12CD12CE12C1A861B86312C6F
:103EF000212C1986EF1409F4BEC0552453945E0C8E
:103F000000917703109178030C0D1D1DF801859029
:103F10009490652D81E00E948006C4010E94EC0F00
:103F2000652D83E10E94800680910A01E81203C09A
:103F30008EE30E94B606F8013296E491EF77E336FD
:103F400009F457C080F4E234B9F120F4EE2309F407
:103F50008DC06FC0EA3509F44AC0E23609F069C085
:103F6000442443942BC0E836D9F088F4E63609F0AF
:103F700060C0F8013396A591B4918D919D910D90FB
:103F8000BC91A02D8D839E83AF83B88752C0E33749
:103F900009F445C0EA3709F04CC020E1298729C05F
:103FA00080911503803419F087E191E002C08FE120
:103FB00091E00E94EC0F5AC06AE0462EF801339659
:103FC000A591B4916C9170E080E090E00E949430F3
:103FD0003B014C01642D70E080E090E00E94923043
:103FE0009B01AC01C401B3010E94F92F13C080E210
:103FF0008987F8013396A591B4916C91062E000C37
:10400000770B9985691B7109072E000C880B990B9A
:104010000E9494306D837E838F8398870AC0F80155
:1040200033966591749144E050E0CE0105960E946C
:10403000EF0C80910A01BD81AE813F812885E81295
:1040400003C0BA87AB871901F8013596E491E29570
:10405000EF70F0E0EE0FFF1FE258FB4F8591949157
:104060004B2F5A2F632F722F0E94A30BE6E0CE0E28
:10407000D11CE52C3FCF85E08A9DF0018B9DF00D92
:104080001124E95FFB4F85919491009711F0FC0199
:1040900009958091AF03882309F464C11092AF039E
:1040A00011E01093A00381E00E9440078739910539
:1040B00014F081E004C08A369F4F24F48FEF0E94F1
:1040C000500750C183E00E944007873991055CF09A
:1040D00010930A018091AD05823019F41092AD055C
:1040E00041C18F5F0CC08A369F4F64F410930A0160
:1040F0008091AD05811102C082E001C081508093A2
:10410000AD0530C160910A016F5F84E10E948006B5
:1041100080910A010091770310917803480196E09D
:10412000899F800C911C112480E00E9440075C0153
:1041300097FF06C0B194A194B108EE24E39401C0A6
:10414000E12CF4013396C590D490F4013296249179
:1041500029878A859B85A32DB22D8D839E83AF836E
:10416000B887122F1F77143640F4123680F41234B9
:1041700061F01A3509F048C00AC0133751F11A37F7
:1041800031F0163609F040C024C00AE001C001E059
:104190008DE2A81681E0B8063CF0412C512C40E29B
:1041A000642E41E4742E06C0412C512C30E8632E5D
:1041B0003FE3732E602F70E080E090E00E94943027
:1041C0009B01AC01C301B2010E94F92FFF24F394BB
:1041D00020C0C50164E670E00E94C832FB01EE0F0A
:1041E000FF1FE35FFE4F6081718180E090E00E94DD
:1041F00092309B01AC0160E070E080E89FE30E9498
:10420000F92F24E0F22E04C060E070E080E89FE324
:1042100001E0E5E6AE16B1040CF446C0E11090589A
:10422000AB01BC01CE0105960E946612F4013596E1
:10423000E491EF70F4E0EF9F30011124F301EC57AB
:10424000FB4F65917491072E000C880B990B0E940F
:1042500094304B015C019B01AC016D817E818F81AB
:1042600098850E94F22F87FF04C08D829E82AF82C4
:10427000B886F301EA57FB4F65917491072E000C45
:10428000880B990B0E9494304B015C019B01AC019F
:104290006D817E818F8198850E94A231181624F449
:1042A0008D829E82AF82B8868D809E80AF80B884DA
:1042B0002A853B85432D522DC501B4010E94F22F62
:1042C000882309F44FC0602F70E080E090E00E94E6
:1042D0009430A50194010E94AD310E9461301336E3
:1042E000C1F038F41A3589F01236A9F0123401F50C
:1042F00012C0133799F01A3751F01636C9F4F60187
:1043000080829182A282B38213C080E203C080E1E6
:1043100001C080E0680FF60160830AC089829A823A
:10432000AB82BC8244E050E0B601CE01019606C0EB
:104330004F2D50E0B60160537240C6010E94780DC7
:10434000F985F7FF0FC00E9427060CC083E093E0B9
:104350000E947C0783E093E00E943B1103C010920F
:10436000B4036CCD2B96E2E10C9454331F920F9260
:104370000FB60F9211242F933F934F935F936F9338
:104380007F938F939F93AF93BF93EF93FF9381E0BE
:104390008093990310929F0380919E038F5F809377
:1043A0009E03E1D660939A0370939B0380939C03D2
:1043B00090939D038091C203882321F00E94CE0632
:1043C0001092C203FF91EF91BF91AF919F918F9196
:1043D0007F916F915F914F913F912F910F900FBE01
:1043E0000F901F901895CBD64B9B09C060939103FB
:1043F0007093920380939303909394030895209174
:10440000910330919203621B730B70939603609338
:1044100095031092910310929203109293031092BD
:10442000940308951F920F920FB60F9211242F93A9
:104430003F934F935F936F937F938F939F93AF932C
:10444000BF93EF93FF93CFDFFF91EF91BF91AF91B8
:104450009F918F917F916F915F914F913F912F919C
:104460000F900FBE0F901F901895CF93DF930FB64C
:10447000F894A89580916000886180936000109204
:1044800060000FBE60E071EE80E090E00E94852E3B
:104490004FE450E060E072E080E394E00E94EF0CB3
:1044A0008091300481FD03C08BE297E002C088E177
:1044B00097E090932F0480932E0480914A048F34C8
:1044C00021F480914B048A3119F081E08093B90383
:1044D00084B58C7F84BD8091310484FF02C081E06B
:1044E00001C083E05FD780917A008B7F80937A0050
:1044F00080917A00866080937A00809169008C7F39
:10450000826080936900E89A80913504813049F493
:1045100053985B9A80916900837F846080936900DF
:10452000E99A0E94D005789480914C04893341F433
:1045300080914D04843321F480914E04843381F0C2
:1045400089E380934C0484E380934D0480934E046C
:1045500043E050E06CE172E08CE494E00E94780D5E
:1045600080917D04882351F010927D0441E050E059
:104570006DE472E08DE794E00E94780D80917504FF
:10458000882309F430C0E0917604EE2361F1F0E075
:10459000E65FFE4FE4918E2F90E0FC01E456F84F69
:1045A000C491FC01E857F84F849180939003D0E0C8
:1045B000CC0FDD1FFE01E654F84F85919491909346
:1045C0008F0380938E0380E00E945719FE01EC5305
:1045D000F84FA591B4919FB7F8942C9180919003D6
:1045E000822B8C939FBF0E9469060E94CE060E9478
:1045F000B2190E94C713DF91CF910895E091030192
:10460000EF5FE0930301E770F0E0EE0FFF1FE1556D
:10461000FB4F9183808388E060E070E08150E82F59
:10462000F0E0EE0FFF1FE155FB4F20813181620F5B
:10463000731F8111F3CF80E090E00E94923020E060
:1046400030E040E05EE30C94AD3197FD05C08F3F54
:10465000910509F01CF4089580E008958FEF089506
:10466000A0E0B0E0E6E3F3E20C9442338091300442
:1046700084FD05C080918203882309F484C0C09121
:104680000201CF5FC093020180E18FD6C770EC2F8B
:10469000F0E0EE0FFF1FE156FB4F9183808388E02F
:1046A000C0E0D0E08150E82FF0E0EE0FFF1FE156B0
:1046B000FB4F20813181C20FD31F8111F3CF209195
:1046C00086033091870347E0429FC001439F900DCE
:1046D00011248C0F9D1FB3E096958795BA95E1F74D
:1046E00090938703809386038091300484FF4BC0AE
:1046F00029E53EEE49E050E4609152047091530484
:1047000080915404909155040E94AD316B017C015D
:10471000BE0180E090E00E9492309B01AC01C70195
:10472000B6010E94AD310E9466308B019C017093EE
:1047300014066093130681E08093A003E09139048E
:104740008E2F61E20E949B32482FC801C29664E618
:1047500070E00E94B432F0E09B012E1B3F0BAFEFE4
:10476000B0E00E941F335AE2459F900111242E1B96
:104770003F0B032E000C440B550B0E94FD32C90168
:1047800064DF80930E068091300485FF04C0809121
:10479000BB03811105C080918303882309F481C084
:1047A000C0910101CF5FC09301018EE0FED5C770BB
:1047B000EC2FF0E0EE0FFF1FE157FB4F918380835A
:1047C00088E0C0E0D0E08150E82FF0E0EE0FFF1F5E
:1047D000E157FB4F20813181C20FD31F8111F3CFED
:1047E000209188033091890347E0429FC001439F95
:1047F000900D11248C0F9D1F63E0969587956A9507
:10480000E1F790938903809388038091300485FFBA
:1048100048C029EA3CEC48E050E4609156047091AD
:10482000570480915804909159040E94AD316B0156
:104830007C01BE0180E090E00E9492309B01AC01BF
:10484000C701B6010E94AD310E9466308B019C0108
:104850007093120660931106E09172048E2F61E24C
:104860000E949B32482FC801C29664E670E00E9405
:10487000B432F0E09B012E1B3F0BAFEFB0E00E9483
:104880001F335AE2459F900111242E1B3F0B032E2C
:10489000000C440B550B0E94FD32C901D6DE8093FB
:1048A0000D068091300486FD05C080918403882325
:1048B00009F480C080918003882349F020E137E229
:1048C00040E050E061E08FE0E8D4CB0102C08FE02F
:1048D0006CD5E0910001EF5FE0930001E770F0E03C
:1048E000EE0FFF1FE158FB4F9183808388E0C0E00B
:1048F000D0E08150E82FF0E0EE0FFF1FE158FB4FB2
:1049000020813181C20FD31F8111F3CF20918A03FF
:1049100030918B0347E0429FC001439F900D1124CB
:104920008C0F9D1F33E0969587953A95E1F790930C
:104930008B0380938A038091300486FF3BC02DE077
:1049400032E348EC5CE360915A0470915B0480911F
:104950005C0490915D040E94AD316B017C01BE014D
:1049600080E090E00E9492309B01AC01C701B6014B
:104970000E94AD310E94663040910F0650911006A2
:104980004115510529F47093100660930F0612C06B
:104990009A01220F331F240F351F2E5F3F4FA901AD
:1049A000460F571F569547955695479550931006B5
:1049B00040930F0680913E048695813041F038F196
:1049C000823041F0833039F58091020422C081E1C8
:1049D000ECD408C020E23EE440E050E061E081E138
:1049E0005CD4CB010BDE20915E0430915F044091DA
:1049F0006004509161040E94AD310E946630709352
:104A000001046093000481E08093A00337C080918B
:104A1000030490E004C08091230690912406EEDD0B
:104A20000E946630709301046093000480918503B6
:104A3000882321F180918103882341F020E137E22E
:104A400040E050E061E081E128D403C081E1ADD4D1
:104A5000BC0180918C0390918D0347E0489F9001A9
:104A6000499F300D1124620F731F83E0769567957F
:104A70008A95E1F770938D0360938C03CDB7DEB711
:104A8000E8E00C945E3381E00E9457190C94131CEB
:104A9000E6E2F3E01382128285E191E09183808364
:104AA00082E293E00E947D2EEEE3F7E088E992E057
:104AB000968B858B8CE992E0948F838F80EB92E0CC
:104AC00092A381A384EB92E090A787A388EC92E065
:104AD00096A785A78CEC92E094AB83AB0895A0E0F9
:104AE000B0E0E5E7F5E20C943C33A89578943BD32D
:104AF0006B017C0128EE33E040E050E00E94DB32A5
:104B00003093C6052093C5052CEDC21625E0D206CC
:104B1000E104F10458F08091B903811107C00FEC52
:104B200014E020E4622E7724739457C00E94B219D7
:104B3000CBC28091A303811155C08091AC03811138
:104B400051C0F801262D11922A95E9F70E94C42E32
:104B50000AD34B015C0134E6830E911CA11CB11CED
:104B6000DAEFCFEF00D386169706A806B90608F04D
:104B700045C0CF3F09F058C0C0910801CB3008F4C0
:104B800056C0C33108F456C0CD3108F456C0C832FF
:104B900008F456C0CC3308F456C0C63908F456C0E1
:104BA00021E080E480934B0630E0A0ECB2E10E946B
:104BB0001F334B015C016093BE037093BF0380936E
:104BC000C0039093C10382E293E00E94742EC5015A
:104BD000B4010E94852E7092A3038091A2038823C2
:104BE00009F4A7CF0E94D4198091A2038093A30354
:104BF0008091A003882309F46BC12BC024EC39E019
:104C000040E050E060E080E048D36F3F71058105EF
:104C1000910509F02CF4662319F06C1708F4C62FDF
:104C2000D15009F09FCFA5CFC0930801A7CF28E1AD
:104C300082E0B8CF2CE084E0B5CF28E086E0B2CFA8
:104C400026E088E0AFCF24E080E1ACCF22E080E234
:104C5000A9CF1091BE0580913504833008F42DC191
:104C6000833029F4C0919503D091960311C09BEF36
:104C7000980F943048F4E82FF0E0EE0FFF1FED5E40
:104C8000F94FC081D18104C0C0912306D091240680
:104C90009E01205233402939384008F00EC120913E
:104CA000060130910701C217D30720F4D093070102
:104CB000C093060120910401309105012C173D0796
:104CC00020F4D0930501C0930401843001F5809154
:104CD000F005882389F01092F00560E070E08CEE1A
:104CE00095E00E94BB0D9091F00580910B01981307
:104CF00003C081E08093A4038CEE95E00E94DF0F57
:104D0000813D974008F4AAC010920B01A7C0809182
:104D10003A04811121C02091040130910501809154
:104D2000060190910701609177048C179D0768F444
:104D3000C81BD90BF901E81BF90BCF0170E00E94E9
:104D4000B432CE010E94B43201C060E0161709F4FB
:104D500085C06093BE0582C08091300482FF3EC052
:104D60008091AB059091AC05C817D90709F448C0EC
:104D70009E01281B390B293C310508F441C0809164
:104D8000A9059091AA05C817D90731F0AE01481BB3
:104D9000590B483C510578F48CEE95E00E94DF0FEA
:104DA000893E934018F081E08093A4031092AA05F5
:104DB0001092A90525C060E070E08CEE95E00E949D
:104DC000BB0D8091AB059091AC059093AA058093A3
:104DD000A905D093AC05C093AB0512C02091040186
:104DE000309105018091060190910701280F391F2C
:104DF000369527952C593F4F81E02C173D0708F039
:104E000080E09091300490FF10C0882321F081E071
:104E10008093A50323C08091A503882319F081E026
:104E20008093A4031092A50319C08823B9F0809041
:104E3000EC059090ED05A090EE05B090EF0593D1B4
:104E400086169706A806B90648F481E08093A40365
:104E500064EF71E08CEE95E00E94BB0D8091A4039D
:104E6000882369F01092A4038091BE058F5F809320
:104E7000BE0590917704981710F41092BE05C0916A
:104E8000BE051C17D1F00E94C7138091B503811194
:104E900012C0A9ECB3E0E2E0F1E084918D93319689
:104EA0008111FBCF8091D003C80FC093D00363E082
:104EB00088E00E94AA131092B5038091A10381118A
:104EC00005C081E08093A10380939F031092A0030B
:104ED0008091A103882351F180919F03811126C005
:104EE0001092A1038091E205882319F081E080935C
:104EF000B1039091A7038091A903992309F4B3C04A
:104F000081110DC01092AE0381E08093A90310922D
:104F1000F1051092F2051092F3051092F4050E942B
:104F2000E9170E94431E81E08093C2038091FD0532
:104F30009091FE05A091FF05B09100068C159D058E
:104F4000AE05BF05B0F464E170E08DEF95E00E941E
:104F5000D20D99DD8091C203882359F080919F037F
:104F6000882339F08AE993E00E94DF0FC39708F0A5
:104F700087C08091F9059091FA05A091FB05B09149
:104F8000FC058C159D05AE05BF0528F564E670E0AF
:104F900089EF95E00E94D20D63DB9091B00381E030
:104FA00089278093B0038823B1F08091BD038823C3
:104FB00069F08F5F8093BD03833068F080910404B3
:104FC0008F5F809304041092BD0305C08091040498
:104FD0008F5F809304048091F5059091F605A09170
:104FE000F705B091F8058C159D05AE05BF0508F0D5
:104FF0006BC064EF71E085EF95E00E94D20D81E017
:105000008093A0038093AF03909105049F5F9093DA
:1050100005049091AC0398279093AC03992309F46D
:1050200053C08093A6038091BA03882399F080919E
:10503000670390916803A0916903B0916A03019698
:10504000A11DB11D8093670390936803A09369032A
:10505000B0936A0380919903882399F180919E030C
:105060008530A8F02EC0882309F459CF8091BC0365
:10507000882309F454CF1092AE031092A9034FCFA6
:1050800010929F030E94CE061092C20372CF8091AD
:105090004C068F5F80934C06843010F00E944406CB
:1050A00010929E0380913B03882319F081508093D6
:1050B0003B0380914C03882339F0815080934C034B
:1050C00003C010924C06ECCFCDB7DEB7EEE00C94E7
:1050D00058331F920F920FB60F9211242F933F93C4
:1050E0008F939F93AF93BF9380914D0690914E06FF
:1050F000A0914F06B09150063091550623E0230F42
:105100002D3720F40196A11DB11D05C026E8230FFF
:105110000296A11DB11D2093550680934D069093D4
:105120004E06A0934F06B093500680915106909181
:105130005206A0915306B09154060196A11DB11DCF
:105140008093510690935206A0935306B093540651
:10515000BF91AF919F918F913F912F910F900FBE73
:105160000F901F9018952FB7F89460914D0670918D
:105170004E0680914F06909150062FBF08953FB77D
:10518000F8948091510690915206A0915306B091E7
:10519000540626B5A89B05C02F3F19F00196A11D06
:1051A000B11D3FBFBA2FA92F982F8827820F911DBD
:1051B000A11DB11DBC01CD0142E0660F771F881F04
:1051C000991F4A95D1F70895CF92DF92EF92FF92FF
:1051D000CF93DF936B017C01D2DFEB01C114D104CB
:1051E000E104F10471F0CBDF6C1B7D0B683E734072
:1051F000A8F381E0C81AD108E108F108C851DC4FD2
:10520000EDCFDF91CF91FF90EF90DF90CF90089599
:10521000019739F0880F991F880F991F02970197FE
:10522000F1F70895789484B5826084BD84B5816077
:1052300084BD85B5826085BD85B5816085BDEEE69E
:10524000F0E0808181608083E1E8F0E0108280817D
:1052500082608083808181608083E0E8F0E08081EB
:1052600081608083E1EBF0E0808184608083E0EB0B
:10527000F0E0808181608083EAE7F0E080818460F3
:10528000808380818260808380818160808380814F
:10529000806880831092C1000895A0E0B0E0E3E54B
:1052A000F9E20C943E3390E0FC01E857F84FA491EA
:1052B000FC01E456F84F8491662311F0BA2F01C027
:1052C000B0E089019A013F7090E0880F991F8055E6
:1052D000984F480159014FEF841A940AA40AB40A5E
:1052E000C12CD12C7601FC01C591D49168816A232F
:1052F0006B131AC05FEFC51AD50AE50AF50AC81480
:10530000D904EA04FB0479F745C0460157016FEF61
:10531000861A960AA60AB60AC016D106E206F3064F
:1053200009F438C075016401FC01C591D49168810C
:105330006A236B13EACFB901A8014C195D096E0904
:105340007F096A017B0120E030E0A901FC01C591E1
:10535000D49168816A236B130AC02C153D054E0554
:105360005F05C1F02F5F3F4F4F4F5F4FEFCFA5E17C
:10537000B0E00E942E33DC01CB014096A11DB11D8F
:10538000BC01CD0124E096958795779567952A9580
:10539000D1F703C060E070E0CB01CDB7DEB7ECE041
:1053A0000C945A338093100108958E3008F08E507B
:1053B00087702091100190E4299F90011124822B85
:1053C00080937C0080917A00806480937A00809141
:1053D0007A0086FDFCCF809178002091790090E0E2
:1053E000922B0895A0E0B0E0E8EFF9E20C9442338C
:1053F0006C01EB017B01E40EF51E00E010E0CE1520
:10540000DF0561F06991D601ED91FC910190F08189
:10541000E02DC6010995080F191FF1CFC801CDB7BE
:10542000DEB7E8E00C945E336115710581F0FB0195
:1054300001900020E9F73197AF01461B570BDC01C3
:10544000ED91FC910280F381E02D0995089580E0B3
:1054500090E00895E9CF0895DC01ED91FC91019071
:10546000F081E02D09950895A1E2B0E0EAE3FAE2C7
:105470000C943E336C01142FE52FCB01022F19A29F
:10548000223008F40AE07E0121E2E20EF11C802EB7
:10549000912CA12CB12C612F7E2FA50194010E948B
:1054A000DB32029F1019112481E0E81AF1081A304A
:1054B00014F4105D01C0195CF7011083122FE32F63
:1054C000CA01232B242B252B31F7B701C601ACDFF2
:1054D000A196ECE00C945A332115310549F4DC0116
:1054E000ED91FC910190F081E02D642F09950895D4
:1054F000BBCF9A01AB0160E070E0EECFA0E0B0E07E
:10550000E4E8FAE20C9442338C016A017B01211534
:10551000310549F4DC01ED91FC910190F081E02D21
:10552000642F09951AC02A30310599F477FF10C00D
:105530006DE292DFEC0144275527BA014C195D0951
:105540006E097F092AE0C8018FDF8C0F9D1F05C0FF
:105550002AE0B701A601C80187DFCDB7DEB7E8E0D2
:105560000C945E339A01AB01770F660B770BC6CFB5
:1055700059DE0E943522C2E1DFE2B1DA2097E9F379
:1055800051D4FBCF0F931F93CF93DF938C01FB017B
:105590006491EF012196662351F0D801ED91FC91C1
:1055A0000190F081E02DC8010995FE01F1CFDF9156
:1055B000CF911F910F910895A0E0B0E0E2EEFAE2E2
:1055C0000C9448339E01275F3F4F4F81588560E020
:1055D0008D819E811DD0E2E00C946433A0E0B0E0A8
:1055E000E4EFFAE20C9448339E01275F3F4F4F816E
:1055F000588561E08D819E810BD0E2E00C9464338C
:10560000DC01ED91FC910190F081E02D0995089568
:10561000A4E1B0E0EEE0FBE20C9438337C016C874F
:105620001A016901CE0101964C01F1012C8520FD82
:10563000059120FF01911F01002309F43DC30532AC
:1056400041F420FD059120FF01911F01053261F415
:1056500005C00A3019F46DE0C701D2DF602FC70121
:10566000CFDF56016501E1CF10E0512C712CFFE135
:10567000F715D8F00B3279F038F4003279F00332B4
:10568000A1F4F72DF0612EC00D3261F0003369F402
:10569000272D21602DC0872D8260782E972D946054
:1056A000792E2AC0E72DE86015C077FC2EC080ED6A
:1056B000800F8A3088F476FE06C02AE0129F800DA3
:1056C0001124182F19C09AE0599E800D1124582ECC
:1056D000E72DE0627E2E10C00E3231F476FCECC273
:1056E000F72DF0647F2E08C00C3621F4272D20689A
:1056F000722E02C0083649F4F1012C8520FD059177
:1057000020FF01911F010111B2CF8BEB800F83307D
:1057100020F4872D8061005E07C08BE9800F833005
:1057200008F056C1872D8F7E86FF16E08F73782E86
:10573000053611F4806403C0063619F48068782EAB
:1057400002C01111115077FE06C01C3350F44424DE
:105750004394410E08C0183040F0412C27E017E078
:1057600006C04CE3442E27E002C0212F412C5601F5
:1057700094E0A90EB11CF601608171818281938150
:10578000042DA4010E94F1046C01098100FF02C0F4
:1057900003FF07C071FC08C072FE09C030E2632E2F
:1057A00007C02DE2622E04C09BE2692E01C0612C6D
:1057B000802F8C7019F0611046C277C277FE0FC03F
:1057C0004C0C04FF04C08A81813309F44A941414F8
:1057D00074F5F8E0F41578F588E0482E2CC076FCD6
:1057E0002AC0812F90E08C159D059CF02CEFC216ED
:1057F0002FEFD20674F0872D8068782E0AC0E2E081
:10580000F0E0EC0FFD1FE10FF11D8081803319F4F2
:1058100011501111F4CF77FE0EC044244394410E71
:10582000812F90E0C816D9062CF41C1904C044241A
:10583000439401C010E077FE06C01C141D0434F42C
:10584000C601019605C085E090E002C081E090E0CD
:1058500061100196112331F0212F30E02F5F3F4F6F
:10586000820F931F252D30E08217930714F4581AE6
:1058700001C0512C872D897039F4552029F060E240
:10588000C701BEDE5A94F9CF662019F0662DC70114
:10589000B7DE73FC07C0552029F060E3C701B0DE16
:1058A0005A94F9CF77FE54C09C2D8D2DD7FE02C09F
:1058B00090E080E0692E782E1E861D86F601E419A0
:1058C000F109F88BEF87C601861997099A8B898BA6
:1058D000612F70E0EE27FF27E61BF70BFC8BEB8BAD
:1058E000FFEF6F167F0619F46EE2C70189DEC6145A
:1058F000D7047CF08F8598898615970554F4ED853B
:10590000FE8589899A89E80FF91FE80DF91D6181E3
:1059100001C060E391E0691A7108ED85FE8531965A
:10592000FE87ED878B899C89681679061CF0C70174
:1059300067DED6CF6C147D0409F047C08A818633B8
:1059400028F4853309F041C004FD3FC061E33DC048
:105950006A81613309F00F7EC70152DE111104C064
:1059600074FC13C065E612C06EE2C70149DE82E036
:1059700066246394680EF401E80FF11D6081C7018D
:105980003FDE1150862DA1F7EBCF65E4C70138DE6D
:10599000D7FC05C0C114D10439F404FF05C0D1946B
:1059A000C194D1086DE201C06BE2C70129DE60E35A
:1059B000EAE0CE16D1042CF06F5F9AE0C91AD10844
:1059C000F7CFC7011DDE60E36C0DC70119DE4FC1C3
:1059D000033631F0033779F0033509F050C01FC0AA
:1059E0005601F2E0AF0EB11CF6018081898301E01F
:1059F00010E0640111C05601F2E0AF0EB11CF601D7
:105A0000C080D18076FE03C0612F70E002C06FEFCE
:105A10007FEFC60115D28C01F72DFF7713C0560119
:105A200022E0A20EB11CF601C080D18076FE03C038
:105A3000612F70E002C06FEF7FEFC601F6D18C01DD
:105A4000F72DF0687F2EF3FD16C0852D90E0081726
:105A5000190788F460E2C701D3DD5A94F6CFF60146
:105A600077FC659177FE61916F01C701C9DD511027
:105A70005A94015011090115110589F7F8C004362F
:105A800011F0093661F5560177FE09C0F4E0AF0E5A
:105A9000B11CF60160817181828193810AC0F2E0BC
:105AA000AF0EB11CF60160817181072E000C880BCE
:105AB000990BF72DFF767F2E97FF09C09095809563
:105AC000709561957F4F8F4F9F4FF0687F2E2AE032
:105AD00030E0A4010E949304C82EC81849C00537BD
